S021000054524142414C484F5F46494E414C5F454D4241524341444F532E73726563BD
S113000070250020712C00006D2C00006D2C000068
S113001000000000000000000000000000000000DC
S11300200000000000000000000000006D2C000033
S113003000000000000000006D2C00006D2C00008A
S11300406D2C00006D2C00006D2C00006D2C000048
S11300506D2C00006D2C0000211A00006D2C000096
S11300606D2C000019200000292000003920000018
S11300704920000059200000692000006D2C000078
S11300806D2C00006D2C00006D2C00006D2C000008
S11300906D2C00006D2C00006D2C00006D2C0000F8
S11300A06D2C00006D2C00006D2C00006D2C0000E8
S11300B00000000010B5064C2378002B07D1054B37
S11300C0002B02D0044800E000BF0123237010BDC0
S11300D0B000002000000000E04D0000084B10B507
S11300E0002B03D00749084800E000BF0748036815
S11300F0002B00D110BD064B002BFBD09847F9E72D
S113010000000000B4000020E04D0000E04D0000BD
S11301100000000070470000074B1B68074A934229
S113012005DC0133044A1360034B1868704700224E
S1130130014B1A60F8E7C046CC000020A0860100FD
S1130140F0B583B06B46DF1DD8710B4E0B4C01220A
S1130150310020000A4DA8478022D205094B5A617C
S1130160012239002000084B98470022310020006A
S1130170A84703B0F0BDC046D40300209803002074
S1130180950700008044004189080000F0B591B053
S1130190604B9847604C3123237000236370A37035
S11301A002A901224A708B700A7031205B4B984778
S11301B02378D9090022002904D15A09D2015849C7
S11301C08C4662441F2633400125290099409161E1
S11301D002AC257000230393049323746374A57401
S11301E0E57423752422A354183A002108A84D4B22
S11301F0984780235B02E3604B4BA36201235B427D
S1130200E3624A4B23634A4B63634A4BA3614A4FFD
S113021022004A4938004A4B98473C682000494B21
S113022098470640B540484B1D603A68D369002B97
S1130230FCD1236802221343236001AC01236370C1
S11302400022A270237021003E20344DA8472100D3
S11302501B20A84700203D4B984736493C4B984704
S1130260830018184000802212052D4B5A61002883
S11302704AD0384B586000229A60190080225202FA
S11302800B681342FCD080221205254B9A61314B36
S1130290586000229A601900802252020B681342AF
S11302A0FCD0802212051E4B9A61A8202A4CA0473C
S11302B01F20A047D320A0470020A0474020A047EC
S11302C0A120A047C820A047DA20A0470220A047C9
S11302D08120A0478F20A047A420A047A620A047A4
S11302E0D520A0478020A0478D20A0471420A047F8
S11302F0DB20A0474020A047D920A047F120A047F9
S1130300AF20A04711B0F0BD80221205044B9A61C2
S1130310C7E7C046A9030000D4030020111C000055
S113032000440041B73600000200300003003600EC
S11303300300370040420F0098030020001C0042D5
S113034081050000E91F000000E100E0FD29000034
S1130350F134000010E000E041010000F0B583B08A
S11303606B46DF1DD8710B4E0B4C0122310020006F
S11303700A4DA8478022D205094B9A61012239000F
S11303802000084B9847002231002000A84703B002
S1130390F0BDC046D4030020980300209507000058
S11303A0804400418908000070B50020084B98473C
S11303B00500084CFA218900A047074B186007493B
S11303C02800A047064B18600522064B1A6070BD32
S11303D0FD290000F13400000000002040420F001D
S11303E00400002010E000E030B5084B1C68084A07
S11303F0002580214902013807D3002CFBD054602A
S1130400956013680B42FCD0F5E730BD0000002076
S113041010E000E0F0B583B00C0016001D00019060
S11304200F4FB8470F273C40B02020430D4CA04746
S11304307006400F10231843A04737403800A047E8
S1130440019B1C00013DEDB201359C466544064EFE
S11304502078B0470134AC42FAD103B0F0BDC046B5
S113046065110000410100005D030000F8B50400BF
S11304700F001500002B03D10D4B9847A84215D04F
S11304802A00390020000B4B98470F263440B02037
S11304902043094CA0477806400F10231843A04777
S11304A030003840A0472800044B9847F8BDC046A8
S11304B09911000089110000410100005D03000052
S11304C0F8B50D480D4B98470D4B984740200D4B00
S11304D09847002500260C4F3400012332002100E8
S11304E02800B8470134E4B2802CF6D10135EDB2CE
S11304F0042DF1D1F8BDC046D000002059110000F0
S11305008D010000410100006D040000F0B5C646F5
S113051000B50400150043B2002B01DB1F2902D9EA
S113052004BC9046F0BDCF08FB00C91A01268E40DA
S1130530F3B29846010038000C4B98470200012D95
S113054009D0002D0BD0022D0CD00023210038003F
S1130550074CA047E4E743460343DAB2F5E7B04368
S1130560C2B2F2E743464340DAB2EEE79911000023
S11305706D04000010B5014B984710BD991100009F
S1130580F0B58BB005000C00160029600B681C2028
S11305909B0701D50BB0F0BD0B681738DB07F9D406
S11305A008006F4B98476F4A116A871C0123BB40B0
S11305B00B43136209A92427F35D0B701430C3B2F3
S11305C001931800684B98470198684B9847F05D71
S11305D00021674B98473378012B3FD03378002BA9
S11305E003D123680822134323602B000C33290012
S11305F02831002204C38B42FCD10023EB62AB629E
S11306000024AB862B863633EC540133EC5401338F
S1130610EC54353B6B722C712868514B984707009A
S11306205449554B9847BF00544BFD502F6804ABB9
S113063080221A705C707F3A9A70DC703378002BD9
S113064002D1002204AB9A70B36A0593F36A06934D
S1130650336B0793736B089300240BE023680C221D
S113066013432360BAE73800454B98470AE0013446
S1130670042C10D0E1B2A30002AA0C201218D05806
S11306800028F0D0431CF2D004A90870000CC0B2BA
S11306903C4B9847EBE733786B71337CAB71B37C9D
S11306A0EB71337D2B72002202ABDA803378012B9D
S11306B012D03378002B26D1B069B28B7B6AF17FDC
S11306C00904B47F2143194379622023F35C002B8E
S11306D01BD040231A4318E02868214B9847143054
S11306E0C0B2294B9847010002AB9A1DB069274B51
S11306F0984703001720002B00D04BE702AB0633CA
S11307001B783B73D5E7002200207368B1680B4364
S1130710F1680B430343317C0A43717C002903D104
S11307201B498978890701D580210B43B17C0029B5
S113073002D0802189020A43F17C002902D0802161
S113074089000A43317D002902D0802189010A43AE
S113075039680B433B607B681A437A60002019E7D1
S1130760711F000000040040152B0000892A0000BE
S1130770AD1D0000990A0000AD1F00003C050020DB
S1130780F91D00000D2C0000312B0000EF1C0000AF
S11307900020004110B544791523012C01D0180024
S11307A010BD047A0023002CF9D1002A58D04B78CC
S11307B0002B44D003681B7EDB0710D40A78D109D0
S11307C00023002904D15309DB012E498C466344DC
S11307D01F21114001228A409A610523DFE70A782C
S11307E0D4090023002C04D15309DB01254CA44671
S11307F063441F2414400122A2405A6103681A7EF4
S1130800D20701D58A789A62C2790023002AC6D118
S113081002680421137E0B42FCD0117E0023490799
S1130820BDD5538B5B0701D5042353838379012BF7
S113083002D0936A0023B2E7936A0023AFE70A78F1
S1130840D1090023002904D15309DB010D498C4649
S113085063441F21114001228A405A6100239EE70C
S11308600A78D1090023002904D15309DB01054981
S11308708C4663441F21114001228A409A6100235F
S11308808DE7C04600440041F0B5DE4657464E466B
S11308904546E0B583B03823C45C333B052C02D015
S11308A01233002A07D1180003B03CBC9046994685
S11308B0A246AB46F0BD4379002B03D103681C7EEE
S11308C0A4070AD49346002401230225AC4602352A
S11308D0A846013A92B28A4623E002241C76F1E744
S11308E0357E61460D422ED1357E1D4200D1C2E0D7
S11308F00668357E1D42FCD0671CBFB251460D5DB3
S11309008179012923D0ADB23C00377E1F4202D049
S1130910ED05ED0DB562551EADB2C679002E1DD1A3
S11309202A005A4DAA4270D04579002DE0D10668BC
S1130930357E1D42D4D1564D377E1F42D0D1013D64
S1130940002DF9D1CCE7022333760233ABE702342E
S1130950A4B25146CF5D3F023D43D6E751464579A7
S1130960002D37D14B4D019112E00234A4B2494617
S1130970019F795C0902009F0F431BE0013A92B288
S11309800668377E41460F421BD1013D002D18D029
S1130990002AF5D00668377E1F42F1D0671CB9B231
S11309A089460199095D009181790129DDD0694663
S11309B00F884C46317E1942E0D0FF05FF0DB76227
S11309C0DCE70199357E67463D4218D1357E4646BF
S11309D0354252D00668357E47463D42FBD0357ECF
S11309E03D4207D0758B3D4200D077838579012D38
S11309F009D0B56A5D46013DADB2AB4669E7022355
S1130A00337602334FE7B56AF4E74379012B0BD011
S1130A10002B34D1C279002A00D144E704245B4678
S1130A205D46002B19D13EE7016802220B7E13427A
S1130A30FCD0002337E70B7E234222D00B7E2342D7
S1130A4007D04B8B234200D04C838379012B10D0E9
S1130A508B6A013DADB2002D15D001680B7E234297
S1130A60E9D10B4B0A7E2242E5D1013B002BF9D19F
S1130A70E1E78B6AEDE7122315E7122313E700235E
S1130A8011E712230FE700230DE7C046FFFF000024
S1130A901027000011270000F8B58000854BC458CA
S1130AA026683723E35C3622A75C1F40337EB57D7E
S1130AB01D40EB072ED56379012B25D0002B29D1BE
S1130AC0637A002B26D02168E26A1378DBB2501CCB
S1130AD0E062A079012800D169E09BB2DB05DB0D5F
S1130AE08B62A38E013B9BB2A386A38E9BB2002B89
S1130AF010D101333375637A012B0BD1E379002BC9
S1130B0008D10233B37505E0637A002B3ED0637AD3
S1130B10002BD8D16B0711D5738B5B0751D5637A42
S1130B20012B08D01E223823E254353B6372023372
S1130B3033753B0741D4B36A04237383AB0715D5DC
S1130B406379002B0ED107333375053B33760133BC
S1130B5063720023A386238638330022E254FB0603
S1130B6000D57FE06379012B00D17FE02B0708D506
S1130B706379002B05D1083333753376BB0600D572
S1130B808AE06DB2002D00DA8AE0F8BD4A4B1B887A
S1130B90B362638E013B9BB26386638E9BB2002B70
S1130BA001D1013333756379012BB0D086E75078D6
S1130BB0000203430232E26290E72000A3699847EF
S1130BC0B9E7637A012B27D023689B6ADB05DB0D29
S1130BD0DAB2A16A0A70A26A511CA162A179012940
S1130BE033D0238E013B9BB22386238E9BB2002BF2
S1130BF0A4D100223833E254343B3375637A022B98
S1130C0029D0637A002B00D098E7BB0700D495E77E
S1130C1020002369984791E723689B6A638E013B10
S1130C209BB26386638E9BB2002B00D086E70433AD
S1130C30337500223433E254353B6372FB0700D42E
S1130C407CE72000E368984778E71B0A5370A36A9F
S1130C500133A362C5E77B0700D46FE72000636913
S1130C6098476BE72000E36998477BE7637A012B99
S1130C7000D086E7E379002B00D082E70233337596
S1130C800133637200223533E254FB0700D46DE76D
S1130C902000E368984769E72000236A984770E7D3
S1130CA08023337533767B0600D46EE7636A2000B5
S1130CB098476AE73C050020D8030020F0B587B0C8
S1130CC00590184B9847184F002502950226019667
S1130CD00095164B164A00213800164CA047029581
S1130CE001960095144B154A00211548A04702951A
S1130CF001960095134B144A00211448A047059C03
S1130D002000134B984721003800124FB8472100A8
S1130D100B48B84721000D48B84720000E4B9847B0
S1130D2007B0F0BDC1040000FC0300201400002043
S1130D304C4900000515000008000020444900004B
S1130D40DC03002020000020544900001C04002083
S1130D5035150000431500007915000010B5014B4E
S1130D60984710BD7915000010B5014B984710BD88
S1130D70C104000010B50200024B0348034CA04715
S1130D8010BDC0463C000020944800002D1900000E
S1130D9070B505000E00140000211000044B9847A4
S1130DA0044B220031002800034CA04770BDC0460C
S1130DB0750D00003C0000202D19000010B5024BF9
S1130DC0024CA04710BDC0463C0000202D19000075
S1130DD010B5072833D880001C4B1B589F460A22A5
S1130DE046211B481B4B984710BD0A2246211A482E
S1130DF0184B9847F8E70A2246211848154B98479C
S1130E00F2E70A2246211648124B9847ECE70A22D9
S1130E10462114480F4B9847E6E70A224621124818
S1130E200C4B9847E0E70A2246211048094B9847A3
S1130E30DAE70A2246210E48064B9847D4E70A22ED
S1130E4046210C48034B9847CEE7C046744800003F
S1130E50AC480000BD0D0000B4480000BC480000D0
S1130E60C4480000CC480000D4480000E04800001A
S1130E70EC480000F448000070B5074C00232370D0
S1130E8001226270A37021001C20044DA847210098
S1130E900220A84770BDC0463C040020111C00007D
S1130EA070B50A4C012363700022A27023702100E4
S1130EB00C20074EB047074D80235B01AB61210036
S1130EC00F20B04780231B02AB6170BD3C0400209F
S1130ED0111C00000044004110B5024B9847024B1E
S1130EE0984710BD790E0000A10E000010B5054909
S1130EF000230B7001224A708B702C20024B984700
S1130F0010BDC0463C040020111C0000F8B50D4C77
S1130F10012363700022A270237021002D200A4F48
S1130F20B8470A4D8026B601AE6121002D20B8478E
S1130F30AE6121002D20B847AE6121002D20B847B5
S1130F40AE61F8BD3C040020111C00008044004147
S1130F5010B5024B9847024B984710BDED0E0000A8
S1130F600D0F0000C2090023002A04D14309DB014C
S1130F70054A944663441B6A1F22024001209040A4
S1130F801840431E9841704700440041C2090023A1
S1130F90002A04D14309DB01054A944663441B6AD1
S1130FA01F2202400120904018404342584170479C
S1130FB00044004110B5642202490348034B98479A
S1130FC010BDC0467404002040040020FD2400002D
S1130FD010B5642202490348034B984710BDC0462C
S1130FE074040020400400201D25000070B582B068
S1130FF005000E0000226B46DA80064C6B46991DF4
S11310002800A0470028F9D16B4606331B883370AB
S113101002B070BDE923000070B505008CB2034E28
S113102021002800B0470028FAD170BDBD2300007C
S1131030F0B591B08023DB05009300230193FF22D8
S113104069460A8100228B72CB729621890108912C
S11310500124242168464454013144540131435449
S1131060013143540A9305314354013143540593E8
S11310700382C3760276027742761323837642771D
S113108080235B030393194B0C93194B0D9301239A
S11310905B420E930F93174D174B1D60174A184B65
S11310A01A60184A184B1A606A4618492800184BE7
S11310B09847184F3B6898680021174EB0473B6823
S11310C058680021B0472E683000144B98471F23FE
S11310D018408440124B1C602A68D369002BFCD151
S11310E0336802221343336011B0F0BD02001600CE
S11310F002001700400400203805002019100000E9
S113110034050020ED0F00003005002000140042DB
S1131110792000004C0000209D370000E91F0000EA
S113112000E100E070B5084C002208492000084D99
S1131130A847012207492000A8473122A35C0321C4
S11311400B43A35470BDC04640040020D10F0000DF
S1131150E5240000B50F0000014B18607047C0463D
S1131160D002002030B5C9018918064A1268521805
S1131170013BDBB201330024055D155501349C426B
S1131180FAD130BDD0020020024B1B68C0011818F0
S113119042547047D0020020024B1B68C00118184B
S11311A0405C7047D0020020F8B5CE46474680B573
S11311B08418802C03DD80225242121AD2B2002AF3
S11311C037D0CD08EC00091B01278F403900FFB24E
S11311D0012B19D0002B30D0022B2AD10138C6B2F2
S11311E09219D4B2204B9946204B984621002800EE
S11311F0C8477840C2B2002321002800C047013C00
S1131200E4B2B442F2D114E00138C6B29219D4B2B5
S1131210154B9946154B984621002800C84738437A
S1131220C2B2002321002800C047013CE4B2B4420A
S1131230F2D10CBC90469946F8BD0138C6B2921959
S1131240D4B2094B9946CF43084B98462100280055
S1131250C8473840C2B2002321002800C047013CDF
S1131260E4B2B442F2D1E4E7750500006D04000075
S1131270F0B583B00090019208AA1778002B0DD026
S11312800139CEB29B19DCB2054D3B00019A210015
S11312900098A847013CE4B2B442F6D103B0F0BDD3
S11312A0A9110000F0B5DE4657464E464546E0B566
S11312B083B005000F004378DB089B46D60883788B
S11312C0002B09D0012B1FD1002398465B46002B2D
S11312D01AD0204B9A4638E05B46002B14D05B466C
S11312E09B19DBB2994600241B4B98462B781800B7
S11312F060436A68944660443A003100C047013450
S11313000136F6B2B145F1D103B03CBC90469946E2
S1131310A246AB46F0BD424653436A681219D25CFA
S11313203919C9B200233000D0470134E4B22B7814
S1131330A342F0D801239C46E0440136F6B243466A
S11313406A46D371D3795B45DED22B780024002B17
S1131350E1D1EFE76D0400001504000010B582B080
S1131360002909D1817D0023009308330422002041
S1131370044CA04702B010BD827D00210248034BFB
S11313809847F7E7711200002C000020A512000016
S1131390F0B589B006000D000023009307338022C6
S11313A0182100201E4CA04702A81E4B1A88028058
S11313B09B7883701F246C441E236B4422001A49BB
S11313C01A4FB84720788024201AC40F24186410B8
S11313D0E4B2002E18D0144B1822210002A8144E97
S11313E0B047002D06D0211FC9B218221148124B54
S11313F0984712E0201FC0B2002300930833042250
S11314001821074CA04708E0201FC0B20023009316
S1131410073314221821024CA04709B0F0BDC0467E
S113142071120000604900003C000020D119000046
S11314302D1900002C000020A512000070B586B004
S1131440040000290ED1E37D002B1AD0A27D7C215B
S11314502448254B98472379012B1BD0002B2FD0F0
S113146006B070BD817D00230093073380220020E5
S11314701E4DA847A27D1E4B052120681D4DA8477F
S1131480E1E7A17D00230093083304227C20174D5B
S1131490A847E0E70822A35E174A092103A8174DCD
S11314A0A847A17D00230093073332224A200F4D21
S11314B0A847A27D0E4B4A2103A8114CA047CFE7B1
S11314C0257BA17D0093073332224A20074EB04783
S11314D0A27DA368AD00E858054B4A21054CA047FE
S11314E0BEE7C04634000020A512000071120000BF
S11314F03C0000207D1900005C490000093900000F
S11315002D19000070B504AC0025645F05AD0026FC
S1131510AE5F06AD2D7802600171448286828575C6
S11315200022C2750482002901D0048170BD836049
S11315300473FBE7002303734372037201334373A1
S1131540704710B50B7A022B09D8DB0083750C7A2F
S1131550002C05D1086048600B7A01330B7210BD72
S11315600A68012C05D9012392690133DBB29C423C
S1131570FAD19061C261EEE7F0B583B006000023B2
S1131580009320338022002100200D4CA047337AA1
S1131590002B13D0356800240A4F01212800B847D6
S11315A0AD690134E4B2337AA342F6D800210120B4
S11315B0054B984730680121044B984703B0F0BDB0
S11315C0711200003D140000911300005D1300002F
S11315D010B504000D2961D01AD9262939D028293B
S11315E000D081E0C37DFF20002B22D02379012B82
S11315F020D0002B06D1237B1221625E934225DC8E
S1131600A38A237300212000384B9847FF2010E061
S1131610082900D068E00023C3750379012B60D04A
S1131620002B01D1038A0373002120002F4B98471C
S1131630FE2010BD0822A35E1221625E9A4202DAE5
S1131640013B2381DEE7A38A2381DBE7013B23738C
S1131650D8E7C37DFF20002BEBD02379012B0ED0DC
S1131660002B06D1237B1421625E934213DB638A31
S11316702373002120001D4B9847FF20D9E708223F
S1131680A35E1421625E9A4202DD01332381F0E7F6
S1131690638A2381EDE701332373EAE7C37D002BDB
S11316A018D00379012B04D0002B0BD00023C37571
S11316B0BAE70023C37500210C4B98470823E05E6A
S11316C02082B6E7C3750021084B9847207B20820F
S11316D000B2AEE70123C3750021044B9847FF20F5
S11316E0A7E7038A03819FE7FF20A2E73D140000D8
S11316F070B505001600037AFE20002B50D06B7BDA
S1131700002B15D02A68002309E00820145E580035
S1131710845392690133DBB2287A984206D910794E
S11317200128F2D05800147B8453F2E700236B7332
S11317302C686A7A531EDBB2FD2B05D80023A469FA
S11317400133DBB29A42FAD12B7B002B19D10D293C
S113175000D170E029D9262944D0282928D1FF2A8C
S113176028D02B7A013B9A4230DA00212000384EEF
S1131770B0476B7A01336B72A0690121B047FF2037
S11317800EE02000334B984783B26B81FE2B08D0C8
S1131790FF2B5BD06B7A5B00985300232B73FF20E5
S11317A070BD00232B73FF20FAE7FE200829F7D031
S11317B0FF20F5E700236B7200210120264B984798
S11317C001212000224B9847FF20E9E70021200057
S11317D01F4B9847FF236B72012101201E4B984732
S11317E0FF20DDE7FF2A0DD0002A18D000212000B9
S11317F0174EB0476B7A013B6B72E0690121B04729
S1131800FF20CDE700210120134B98472B7A013BA1
S11318106B72686801210E4B9847FF20C0E70021D6
S113182020000B4B9847FF236B72012101200A4BC8
S11318309847FF20B4E7FD20FF2AB1D00D212000F6
S1131840044B984701232B73FF20A9E7FF20A7E748
S11318505D130000D115000091130000F0B5DE46C1
S113186057464E464546E0B585B004008846150007
S11318709B465B7A5A46127A002100912900404621
S1131880284EB0475B461B78002B06D005B03CBC05
S113189090469946A246AB46F0BD5B461A7AD308F9
S11318A0520700D001335A46527A92465A46977AE2
S11318B0E71B524657435F43BFB25B465B689C4697
S11318C0674402954346039320E06BB2002B0DDB83
S11318D00134E4B26D00EDB2A6420DD04346E31AE2
S11318E04A461A42F1D13D780137EEE701220299C6
S11318F020000D4B9847EBE7029B0133DBB20293C8
S11319005346013BDBB29A46002BBFD05B461E7A9E
S1131910002EF1D04644F6B2039C002507239946D5
S1131920DCE7C046711200000D050000F0B5C646A4
S113193000B582B0040090461F000D00019109E03B
S11319407A7A01324244D3B29846019D0134237815
S1131950002B0DD020780A28F2D00D28F6D03B00B9
S113196042462900044EB0473B7AED18EDB2EDE74C
S113197002B004BC9046F0BD5D180000F0B5C64648
S113198000B582B0040090461F000078002819D0EA
S11319900D00019109E07A7A01324244D3B29846AB
S11319A0019D0134207800280CD00A28F3D00D289A
S11319B0F7D03B0042462900044EB0473B7AED186D
S11319C0EDB2EEE702B004BC9046F0BD5D18000035
S11319D0F0B5C64600B5944698460B7A4A7A160086
S11319E000210125002708E0B618F6B2390000E00E
S11319F0E5B201300478002C0BD004780A2CF3D023
S1131A000D2CF6D0C918C9B22C1C8D42F0D20C1C76
S1131A10EEE763461D7043461E7004BC9046F0BD5D
S1131A2010B5264B984726490B8C0F2213409B0078
S1131A302448185803781A403F23CA540F33CA5C09
S1131A40D2B203781B012049C91849881F4CE318F6
S1131A505B88CB1A4361D3070FD501214E23184A63
S1131A60D1543E3B4374037CDB0703D54368002B0E
S1131A7000D09847164B984710BD93070DD5022107
S1131A804E230F4AD15400234374037C9B07F1D5A2
S1131A908368002BEED09847ECE75307EAD504217E
S1131AA04E23074AD154483B4374037C5B07E1D57A
S1131AB0C368002BDED09847DCE7C046691B0000F2
S1131AC000480041D4020020E0040020F00200207D
S1131AD0A91B0000F0B5C64600B50C0090460028CE
S1131AE00FD1002A11DD8F18094E0A4D30682100EC
S1131AF02B6898470134BC42F8D1404604BC904658
S1131B00F0BD01235B429846F7E78046F5E7C046FF
S1131B103805002030050020F0B5C64600B50E009B
S1131B2015000138022810D8002A11D000240C4BCB
S1131B3098460C4F43461868315D3B689847002827
S1131B4008DB0134A542F5D106E00124644203E038
S1131B50140001E001246442200004BC9046F0BD5E
S1131B6038050020340500200C4B1B68002B06D1DF
S1131B70EFF31083002B07D00022094B1A70074A99
S1131B80136801331360704772B6BFF35F8F00228E
S1131B90044B1A700132024B1A70F0E74003002024
S1131BA04403002048000020084B1A68013A1A60D8
S1131BB01B68002B09D1064B1B78002B05D0012292
S1131BC0044B1A70BFF35F8F62B670474003002066
S1131BD04403002048000020F0B583B001AC012587
S1131BE065700027A770257021003E20064EB0477F
S1131BF08022D205054B9A612770657021000F2061
S1131C00B04703B0F0BDC046111C00008044004141
S1131C1000B583B001AB80221A700A785A704A78F2
S1131C209A708A78DA701900014B984703B000BDA6
S1131C300D2C0000F0B5DE4657464E464546E0B54D
S1131C4087B08046049116001F0000220023002163
S1131C508B463F2401202100009601975C460394A3
S1131C604446059413E02024641A0500E540A84680
S1131C7014E0009C019D121BAB415C464D462C4375
S1131C80A346039C45462C430394013925D32024C1
S1131C9064420C19E7D40500A540A84604008C4012
S1131CA0A14692185B4114001D00059E4F463E401C
S1131CB0B446049E47463E40B246664657463E43B7
S1131CC003D00600264332002B00009C019D9D4258
S1131CD0DBD8CED19442D8D8CBE7039B5846190021
S1131CE007B03CBC90469946A246AB46F0BD10B541
S1131CF0490840230024814202D2180010BD1C0070
S1131D00091A631C9BB28842F9D94023FF2CF4D8EA
S1131D1014800023F1E70000F0B583B00F00160033
S1131D2008AA117804004C434022BC4202D9100096
S1131D3003B0F0BD002B14D1020008000021194C9F
S1131D40A04701003A0000230020174CA0470022BE
S1131D500123121A8B41120C1B041A4332800022F5
S1131D60E5E70022012BF9D10A00002300210D4CE4
S1131D70A04702000B0000920193380000210A4C96
S1131D80A047050080239B0140229842CFD8790FB9
S1131D90F800009A019BA047EA00821AD2B25203CB
S1131DA02A43DBE709360000351C000010B582B079
S1131DB004000E4B1B78002B07D0002905D10B4BD8
S1131DC05B78834210D01D200CE001A90C70132015
S1131DD0074B98471320074B9847044B5C7001222C
S1131DE01A70002002B010BD0020FBE74803002059
S1131DF0152B0000892A0000404B984231D00AD9A3
S1131E003F4B98424DD03F4B98425AD03E4B98425C
S1131E1037D0002070473D4B98420CD03C4B984241
S1131E20F7D1012917D000295DD0022915D0032943
S1131E3015D00020EEE7012907D0002951D002294E
S1131E4005D0032905D00020E4E73248E2E7324810
S1131E50E0E73248DEE73248DCE73248DAE7324886
S1131E60D8E7012907D000293FD0022905D003294A
S1131E7005D00020CEE72D48CCE72D48CAE72D48F1
S1131E80C8E7012907D0002931D0022905D0032948
S1131E9005D00020BEE72848BCE72848BAE7284810
S1131EA0B8E7012907D0002923D0022905D0032946
S1131EB005D00020AEE72348ACE72348AAE723482F
S1131EC0A8E7012907D0002915D0022905D0032944
S1131ED005D000209EE71E489CE71E489AE71E484E
S1131EE098E71E4896E7032094E71D4892E71D48AB
S1131EF090E71D488EE71D488CE7C046001000425D
S1131F0000180042001C0042001400420008004275
S1131F10000C004203000500030006000300070054
S1131F200300010003001E0003001F00030009005A
S1131F3003000A0003000B00030011000300120059
S1131F400300130003000D0003000E0003000F0044
S1131F500300170003001800030019000300040025
S1131F60030008000300100003000C000300160027
S1131F7030B587B00B4B6A4632CB32C232CB32C259
S1131F80009B83420BD001239A0069465258824237
S1131F9006D00133062BF7D1002007B030BD002353
S1131FA0D8B2FAE7004C000070470000F0B50A4BC5
S1131FB01B78002B0CD1094F094E0A4D0024DE5129
S1131FC05A1914600433182BF9D10122024B1A70E8
S1131FD08000024BC150F0BD4A0300204C03002096
S1131FE0A91F00003C05002000B583B009236A4600
S1131FF0137001335370013393700133D370013381
S1132000137101335371034B98476B46185603B051
S113201000BDC046711F000010B5024B1B680020B4
S1132020984710BD4C03002010B5024B5B6801209B
S1132030984710BD4C03002010B5024B9B6802204A
S1132040984710BD4C03002010B5024BDB680320F9
S1132050984710BD4C03002010B5024B1B690420A7
S1132060984710BD4C03002010B5024B5B69052056
S1132070984710BD4C030020F0B5DE4657464E4647
S11320804546E0B591B005000C0016002960080033
S1132090BC4B9847020023680520DB0706D511B026
S11320A03CBC90469946A246AB46F0BD2368173027
S11320B09B07F4D4B449086A971C0123BB4003432B
S11320C00B620FA92D27F35D0B701432D3B2029368
S11320D01800AE4B98470298AD4B9847F05D00212D
S11320E0AC4B9847F37A6B712423F35CAB712523D3
S11320F0F35CEB71F37E2B72337F6B722B68984623
S11321001800A04B9847143000220E2306A98C46D1
S113211063441A80328A02928023DB019A4200D1FE
S11321209EE00FD9C023DB01029A9A4200D192E0CB
S113213080231B029A4200D01FE10323069300234D
S1132140079308E080239B019A4200D015E11023F5
S113215006930F3B079333680593F36803937369FE
S11321600493337E9B462623F35C9A467368994610
S1132170002B00D1A0E080235B05994500D184E0C9
S1132180737E002B02D0B37E424693732A68029F6B
S1132190D369002BFCD10E3306AA944663441B88F2
S11321A042469381059B039A1343049A13434A4678
S11321B013431F435B461B021F4353465B071F43E6
S11321C02723F35C002B01D104331F43737E9B024E
S11321D0327F52021343727F120213432422B25CF1
S11321E0520413432522B25C12041343B17AF27AE7
S11321F0114319433389FF2B00D181E0802252041B
S1132200174319432C23F35C002B03D1624B9B78B7
S11322109B0701D580231F432A68D369002BFCD177
S1132220434659602A68D369002BFCD143461F609A
S11322300EAB80221A7000225A70DA709A70336BD7
S11322400A93736B0B93B36B0C93F36B02930D9321
S113225000270AAE63E008230693073B07937AE757
S113226033680593F368039373690493337E9B4641
S11322702623F35C9A4673689946002B18D0802372
S11322805B05994501D0002025E02723F35C002B52
S113229000D075E7336A1F00C0B2404B9847010075
S11322A00E2206AB9C46624438003D4B984712E030
S11322B008230693002307932723F35C002B0ED0F7
S11322C0069B0093079B0E2206A98C466244B16AC2
S11322D0306A344FB847002800D0E0E650E7336A4C
S11322E01F00C0B22D4B98470100069B0093079B2B
S11322F00E2206A88446624438002A4FB847EAE70B
S1132300F37E002B00D17DE78023DB041F4379E7B4
S11323102000254B984707E00137042F0DD0F9B270
S1132320BB0098590028F3D0431CF5D00EA90870BF
S1132330000CC0B21D4B9847EEE70023EB602B6105
S11323406B61AB61EB612B62AB626B620022EB856C
S1132350AB853033EA540133EA540133EA54013390
S1132360EA542868074B984704001149114B9847D1
S1132370A400114BE550002091E61023069300239E
S11323800793E8E6711F000000040040152B0000CD
S1132390892A0000AD1D000000200041312B0000FF
S11323A0EF1C0000191D0000F91D00000D2C000099
S11323B03D250000AD1F00003C050020C2791C2310
S11323C0002A01D118007047C28D92B2173B002A2F
S11323D0F8D10368DA69002AFCD1198502211A7E32
S11323E00A42FCD00023EDE782791C23002A01D1A4
S11323F018007047828D92B2173B002AF8D1026808
S1132400107E4007F4D5D369002BFCD1538BDBB28B
S113241098061DD0980703D5022353831833E7E7A2
S1132420580703D5042353831A33E1E7D80703D5A8
S1132430012353831233DBE7D80603D510235383D8
S11324403233D5E79B0603D5202353832133CFE7CB
S1132450138D0B800023CBE7F8B506000C001500A4
S113246007680A4B9847F38D9BB2002B03D0084BA7
S113247098470520F8BDF585054B9847B4620522B9
S11324803323F254323BBB750020F3E7691B000091
S1132490A91B0000F8B504000D00160007680F4BD7
S11324A09847A38D9BB2002B03D00D4B9847052072
S11324B0F8BDA6850A4B9847656205223223E2548B
S11324C02E3BBB75237A002B01D02023BB75637A86
S11324D00020002BECD00823BB75E9E7691B000042
S11324E0A91B0000931C9B00C318596030210123D1
S11324F093401A00435C13434354704710B51723A9
S1132500002A01D1180010BDC4790533002CF9D07C
S1132510014B98470300F5E75924000010B5172331
S1132520002A01D1180010BD84790533002CF9D09C
S1132530014B98470300F5E795240000F8B58000A7
S1132540624BC5582C68E369002BFCD1237EA67D21
S11325501E403023EB5C3122AF5C1F40F30722D5D1
S1132560EB8D9BB2002B1CD0AA6A1378DBB2511CF2
S1132570A962697901290ED09BB2DB05DB0D2385A5
S1132580EB8D013B9BB2EB85002B0CD10133237502
S11325900133A37507E0517809020B430232AA62A2
S11325A0EBE701232375B30706D502232375002225
S11325B03133EA54FB071AD4730765D5AB8D9BB24C
S11325C0002B5FD0638BDBB21A0714D43F22134075
S11325D0002B34D09A0711D51A223223EA54303B07
S11325E063837B0750D528006B6998474CE028002B
S11325F0EB689847E0E737221340E9E75A0705D527
S11326001E223223EA542E3B6383EAE7DA0705D518
S113261013223223EA54313B6383E2E7DA0605D519
S113262042223223EA54223B6383DAE720221A420D
S1132630D7D021323223EA54123B6383D1E7238D6E
S1132640DB05DB0DDAB2696A0A706A6A511C6962D9
S11326506979012910D0AB8D013B9BB2AB85002B6E
S113266012D10433237500222E33EA54BB070BD551
S113267028002B69984707E01B0A53706B6A0133E3
S11326806B62E8E704232375F30604D5102323754E
S11326902376FB060ED4B30604D5202323752376B4
S11326A03B070BD4330704D5082323752376BB06D5
S11326B008D4F8BD2800EB699847ECE72800AB691B
S11326C09847EFE72B6A28009847F2E73C0500207B
S11326D010B5082803D880001B4B1B589F460020C8
S11326E030E01A4B18692DE0194B1B6A9B059B0FB0
S11326F01848D84026E0154B586923E0134B1B6853
S113270000209B071ED512491022CB681A42FCD028
S11327100E4B1B685B0701D40F4813E000200F4BDE
S113272098470A4B9B681B041B0C58430AE0502330
S1132730074AD35C00205B0704D5044BD86801E04A
S11327408020000210BDC046184C00006403002025
S11327500008004000127A00006CDC02312B0000FB
S113276070B50C490B6A04788578407801221040D2
S113277080014026B34303432A40D201802083438F
S113278013430322224012020348034013430B6203
S113279070BDC04600080040FFFCFFFF082803D8B6
S11327A08000254B1B589F46172044E0234A136A98
S11327B002210B43136200203DE0204A9369022169
S11327C00B439361002036E01C4A138A02210B4319
S11327D0138200202FE0194A938A02210B4393822B
S11327E0002028E016490B68022213430B60134BA8
S11327F09A8419000E32CB681A42FCD0104A9168B0
S11328000E4BD96252689A6200229A8419001032DF
S1132810CB681A42FCD00A4B1B689BB2074A9384CC
S1132820002008E0054944228B5C022003438B54BA
S1132830002000E0002070473C4C000000080040ED
S11328406403002030B585B0C222D2001A4B9A60CE
S11328501A4A53681E218B43536001236A4613703E
S11328600024174DE0B26946A8470134252CF9D15C
S113287003A800244470012585700470114B984707
S11328800620114B9847114B9847114B1C725C72F0
S11328909C72DC7201956B465C7006236A46137069
S11328A014725472694600200A4B984700200A4B60
S11328B0984705B030BDC0460008004000400041C4
S11328C0152B0000612700009D270000DD28000073
S11328D00004004001290000B9290000064A936958
S11328E008210B4393610122044B1A7019000B78E1
S11328F01342FCD17047C04600040040000C004065
S113290070B5060004000D782D0205434B78002BAA
S113291002D08023DB021D434B7A002B02D080239C
S11329201B031D434868012810D9431E184234D1A3
S1132930022830D90223002201325B009842FBD8DE
S113294012023243140080235B031D430B7A002BD5
S113295002D080239B031D43134A53785BB2002BA0
S1132960FBDB124B9847124B1E700F4A53785BB235
S1132970002BFBDB0C4B9C601A0053785BB2002BE2
S1132980FBDB094A5368802149020B401D43556013
S1132990084B984770BD0022D2E7040234438023D9
S11329A09B021D43D2E7C046000C0040691B000097
S11329B0080C0040A91B000010B504000B4A537812
S11329C05BB2002BFBDB0A4B98470A4B1C70074A8F
S11329D053785BB2002BFBDB044A516880235B0213
S11329E00B435360044B984710BDC046000C004095
S11329F0691B0000040C0040A91B000070B5040012
S1132A001A4A53785BB2002BFBDB194B9847194BDE
S1132A101C70164A53785BB2002BFBDB134E7068B4
S1132A20C004C00E144B98470500124B1C70766806
S1132A30F602F60F114B1C700C4A53785BB2002B54
S1132A40FBDB0A4B9C682402240C0D4B9847002E98
S1132A5007D1012C07D9210028000A4B984705000B
S1132A6001E00134E540280070BDC046000C004080
S1132A70691B0000040C0040D1260000080C004033
S1132A80A91B0000F134000010B50400064B984760
S1132A90064B1C70064A53888021C9010B4353809E
S1132AA0044B984710BDC046691B0000020C00404F
S1132AB0000C0040A91B000010B504000F4B984700
S1132AC00F4B1C700F4A53881B05180F53880E496F
S1132AD00B40538053880D490B40538011008022D2
S1132AE0D2014B881342FCD106494A8803020648A6
S1132AF0024013434B80064B984710BD691B0000EE
S1132B00020C0040000C0040FFF0FFFFFFBFFFFF7E
S1132B10A91B000010B50C7824020443024B98470B
S1132B20A4B2024B5C8010BDB92A0000000C004026
S1132B3010B50400064B9847064B1C70064B5C8886
S1132B402405240F054B98472000054B984710BDDA
S1132B50691B0000020C0040000C0040A91B00008F
S1132B60FD29000030B5D378002B35D11378802BA4
S1132B7029D01B0680246402234354780225AC43E5
S1132B8006D19478002C20D18024A40223434160F0
S1132B905478013C012C1CD90D042D0CA024E4050F
S1132BA02C431C4384620D0CD02424062C431C4368
S1132BB08462D478002C22D15B031CD59378012B3A
S1132BC01ED0416117E00023D7E7C024E402234369
S1132BD0DDE70D4C2340DFE741600C04240CA02307
S1132BE0DB05234383620C0CD0231B06234383623F
S1132BF0D378002B03D15378013B012B02D930BD8C
S1132C008161F8E78160FAE7FFFFFBFF10B50A0076
S1132C10C1090023002904D14309DB0105498C467D
S1132C2063441F242040012181401800024B98472F
S1132C3010BDC04600440041652B000070470000F1
S1132C4010B5054B9847054B9847054B9847054BDE
S1132C509847054B984710BD45280000D91B000034
S1132C603D2C00003D2C00003D2C0000FEE7000040
S1132C70F8B52A4A2A4B9A4211D01A00294B9A4293
S1132C800DD2294A03339B1A9B0801339B0000226F
S1132C90234822498C58845004329A42FAD1234A58
S1132CA0234B9A420AD2D34321495B1803218B4315
S1132CB004339B18002102C29342FCD11D4AFF2118
S1132CC01D4B8B439360FD3990235B001B4AD1500D
S1132CD01B4AD3780325AB4302242343D370D37810
S1132CE00C27BB4308263343D370164B987B302202
S1132CF09043202210439873997BB94331439973CD
S1132D009A7BAA4322439A730F4A536880210B4348
S1132D1053600E4B98470E4B9847FEE7E04D00007A
S1132D2000000020B000002004000020B0000020BB
S1132D307005002000ED00E000000000007000417C
S1132D400050004100480041004000415D36000051
S1132D50493400000300064A1268002A04D0044AD9
S1132D601068C318136070470249014A1160F6E7FE
S1132D707C030020702500200120404270478023FE
S1132D809B014B6000207047012070470020704772
S1132D9070B504000388002B05D0782B05D00023E0
S1132DA00380032070BD782303801C20594B98476F
S1132DB0002817D0584B1B78002B1BD0012B47D071
S1132DC0032B65D0022B00D186E0534B1B78042BD8
S1132DD000D190E0FA204000504B9847BF23238055
S1132DE00120DFE702304B4B984703000020002B03
S1132DF0E0D1D7E71C20474B984700281AD102207E
S1132E00444B984700281BD1454B1B78FD2BDCD144
S1132E100122444BDA800022414B1A70424B9847FE
S1132E200A2200214148424DA84719220021414865
S1132E30A847CAE73B4A28213F48404B9847DEE76A
S1132E40384A0D213C483D4B9847354B1870DBE719
S1132E501C20304B984700280CD003222E4B1A70AC
S1132E60073214213648324DA8471922002135482B
S1132E70A847AAE70220274B98470028A5D000229C
S1132E80254B1A70284B98472B482F4B98479CE7A3
S1132E901C20204B9847002810D001221E4B1A708A
S1132EA0093200212148224DA847284B1878284B85
S1132EB09847192200211F48A84786E70220154B8E
S1132EC09847002881D00022134B1A70164B98475C
S1132ED019481D4B984778E702200E4B9847002865
S1132EE000D172E700220C4B1A700F4B984712481E
S1132EF0154B984769E70220064B9847002800D1F4
S1132F0068E70022044B1A70074B98470A480E4B97
S1132F1098475FE78D0F000080030020E90300005D
S1132F208803002054050020690D0000B04C000007
S1132F30910D0000BC4C00005C050020F11600005F
S1132F40D44C0000E44C00005D0D0000490000205A
S1132F50D10D000070B504000388002B04D00222B8
S1132F60FF32934200D07FE0414B1B78002B1DD1F0
S1132F70404A1188404B19700221535E91883F4AA0
S1132F801170DAB2012A2FD0002A06D0022A2FD0DB
S1132F90012252423A4B1A8003E0FA225200384B83
S1132FA01A80344B06229B5E012B25D0324B1B78B2
S1132FB0022B28D080225201324B9A612C4B1B7871
S1132FC0012B25D0802212022E4B9A61284B1B78AC
S1132FD0022B33D020202C4B98472C4B1860022313
S1132FE0FF332380012070BD294A254B1A80D8E77E
S1132FF0284A234B1A80D4E701221D4B1A70002261
S11330001C4BDA80D2E7802252011E4B5A61D5E76D
S1133010802212021B4B5A612C201F4B9847002818
S1133020D4D00222124B1A7008320A211B481C4DBC
S1133030A847192200211B48A847C7E72C201A4B90
S113304098470028C6D00122094B1A700932002182
S11330501648134DA847164B1878164B9847192253
S113306000211548A847B5E7002303800320BAE7E9
S11330708003002054050020810300208A030020DF
S11330804A0000200044004119010000840300208C
S1133090DC050000B80B0000650F0000FC4C0000CC
S11330A0910D0000104D00008D0F0000B04C000089
S11330B049000020D10D0000BC4C000070B5040094
S11330C00388002B04D0BA225200934200D01EE1A0
S11330D0914B1B78012B09D0002B02D107228F4B77
S11330E01A70BA235B002380012070BD8B4B1A78C1
S11330F0072A00D905E19300894AD3589F46002343
S1133100884A1360854A13700722874B1A7000207F
S1133110864B9847834A136801331360E1E7844B75
S11331201A88844B1B689A42F4DC7F4B1B78072B6C
S113313007D0022B0DD0032B13D00022794B1A6039
S1133140E8E70220754B1870774B1870774B984757
S1133150F3E70320714B1870734B1870734B984747
S1133160EBE704206D4B18706F4B18706F4B98474A
S1133170E3E7704B1B68002BCCDC6B4B1B789A1E6F
S1133180012A05D9042B0CD00022664B1A60C1E732
S11331900022624B1A700A3246216748674B9847EF
S11331A0F2E705205D4B187007225F4B1A705F4BE6
S11331B09847E9E75B4B1B68614A934203DD614A28
S11331C01278012A0DD0604A934203DD5D4A1278D9
S11331D0002A06D05D4A93429CDD5A4B1B78022B91
S11331E098D101224D4B1A700120504B984791E71A
S11331F04C4B1B68524A934203DD524A1278012A0F
S11332000FD0514A934203DD4E4A1278002A08D067
S11332104E4A934200DC7DE74A4B1B78022B00D0D8
S113322078E701223D4B1A700120404B984771E723
S11332303C4B1B68424A934203DD424A1278012AFE
S11332400FD0414A934203DD3E4A1278002A08D047
S11332503E4A934200DC5DE73A4B1B78022B00D0D8
S113326058E701222D4B1A700120304B984751E743
S11332702C4B1B68324A934203DD324A1278012AEE
S11332800FD0314A934203DD2E4A1278002A08D027
S11332902E4A934200DC3DE72A4B1B78022B00D0D8
S11332A038E706221D4B1A700620204B984731E759
S11332B01C4B1B68224A934203DD254A1278002ADC
S11332C00FD0214A934203DD214A1278012A08D003
S11332D01E4A934200DC1DE71D4B1B78022B00D0D5
S11332E018E707220D4B1A70033A0B4B1A7006327B
S11332F00A211848184DA847192200211748A84741
S113330008E70A22462116480C4B984702E7002397
S113331003800320E9E6C046800300204900002022
S1133320604C00008C03002089030020D10D0000B4
S11333304A00002084030020B4480000BD0D0000B2
S1133340A086010081030020400D0300E0930400E7
S11333508A0300209C4C0000910D0000104D0000D9
S1133360F44800000388002B03D0D122520093427A
S113337052D1314B1B78012B16D0802189012F4A61
S11333809161802189012D4A9161012B48D08022CD
S113339092012A4B9A6180229201284B9A61D1238F
S11333A05B00038001207047254A1278022A07D067
S11333B0053A012A04D980218901204A916103E058
S11333C0802189011D4A51611D4A1278002A05D0C5
S11333D0062AD6D11B4A1278022AD2D18021890129
S11333E0164A5161164A127804218A43012A06D0EA
S11333F080218901114A9161012B04D0CBE78022FD
S113340092010E4B5A610E4B1B78062BC3D18022BE
S113341092010A4B5A61C2E7002303800320C2E7EA
S1133420074B1B7804229343012BE8D0802292019E
S1133430024B9A61E7E7C0468003002080440041C4
S1133440490000208A03002070B584B0184B9847C7
S11334501848194B9847194B9847194B9847194BDB
S11334609847194B9847194B98470122184B1A70E3
S1133470BFF35F8F62B6174B013B002BFCD116489C
S1133480164B9847002303AA138002AA138001AAAB
S113349013806A461380124E124D134C03A8B04792
S11334A002A8A84701A8A0476846104B9847F5E72B
S11334B0412C00005C050020BD0C0000D90E00006A
S11334C0510F00001501000031100000251100000B
S11334D04800002040420F00804C00008937000063
S11334E0912D0000552F000065330000BD30000011
S11334F0002243088B4274D303098B425FD3030A2F
S11335008B4244D3030B8B4228D3030C8B420DD341
S1133510FF22090212BA030C8B4202D312120902CF
S113352065D0030B8B4219D300E0090AC30B8B420D
S113353001D3CB03C01A5241830B8B4201D38B03BB
S1133540C01A5241430B8B4201D34B03C01A524160
S1133550030B8B4201D30B03C01A5241C30A8B42A3
S113356001D3CB02C01A5241830A8B4201D38B028E
S1133570C01A5241430A8B4201D34B02C01A524132
S1133580030A8B4201D30B02C01A5241CDD2C309A4
S11335908B4201D3CB01C01A524183098B4201D320
S11335A08B01C01A524143098B4201D34B01C01A0B
S11335B0524103098B4201D30B01C01A5241C30883
S11335C08B4201D3CB00C01A524183088B4201D3F2
S11335D08B00C01A524143088B4201D34B00C01ADE
S11335E05241411A00D20146524110467047FFE74A
S11335F001B5002000F006F802BDC0460029F7D04E
S113360076E770477047C046F0B5CE464746150486
S11336102D0C2E0080B50704140C3F0C9946030CA6
S11336207E435D43674363437F19340CE4199C462E
S1133630A54203D980235B029846C4444B465143B8
S113364043433604360C250C24046544A419591844
S1133650491920000CBC90469946F0BD70B500266F
S11336600C4D0D4C641BA410A64209D1002601F098
S1133670A7FB0A4D0A4C641BA410A64205D170BDD9
S1133680B300EB5898470136EEE7B300EB58984780
S11336900136F2E7CC4D0000CC4D0000CC4D0000CB
S11336A0D04D0000002310B59A4200D110BDCC5C6F
S11336B0C4540133F8E703008218934200D17047E1
S11336C019700133F9E7000070B505000E000028F9
S11336D004D08369002B01D100F00CFBAB69AC680A
S11336E0002B02D1280000F005FB244B9C420FD193
S11336F06C68A3891B0702D52369002B20D1210004
S1133700280000F089F900281AD00120404270BD39
S11337101B4B9C4201D1AC68EBE71A4B9C42E8D1AD
S1133720EC68E6E7013B0136A360002B04DAA269EA
S1133730934216DB0A2914D023685A1C226019709C
S11337403178A3680029EDD1013BA360002B0FDA87
S113375022000A31280000F009F9431CD5D00A20C0
S1133760D5E72200280000F001F9431CE8D1CCE79A
S11337700A2023685A1C22601870C8E74C4D0000C8
S11337806C4D00002C4D000010B5034B010018686F
S1133790FFF79AFF10BDC0464C0000204A424A4140
S11337A0802310B55200DB0000F002F810BD0000C9
S11337B0F0B51D004F4B85B01E6804000F00009249
S11337C0002E05D0B369002B02D1300000F092FA2C
S11337D0494B9C4250D17468009B022B05D0012BAD
S11337E000D984E0002D00DA81E02100300000F0EF
S11337F013FA616B002908D023004433994202D0A4
S1133800300000F083FB002363630023A361636043
S1133810A3891B0603D52169300000F077FBA38937
S1133820364A1340A381009B022B5AD003AB02AA51
S11338302100300000F0F4FAA3891843A081002D80
S113384024D1029D280000F057FB0195071E42D1A8
S1133850029B0193AB4239D1012040420223A28949
S11338601343A3810023A360230047332360236110
S11338700123636105B0F0BD214B9C4201D1B468C2
S1133880AAE7204B9C42A7D1F468A5E7002FD9D022
S1133890B369002B02D1300000F02CFA009B012BFD
S11338A003D1A389009A1A43A2810820A38927601F
S11338B027616561184018D0012018400023984200
S11338C011D06D42A360A5611800D3E7019800F000
S11338D013FB071EC0D08023A289019D1343A3813B
S11338E0D6E70020BAE7A560C4E7A060C2E70120DC
S11338F04042BFE74C0000204C4D00005CF3FFFF4A
S11339006C4D00002C4D00000CB430B5164B9DB02E
S11339100C1E1D6808DA8B2301202B6040421DB069
S113392030BC08BC02B01847822302A99B008B81DB
S11339300023029008619C4200D0631E8B604B619F
S113394001235B42CB81209A21AB2800019300F034
S1133950E7FB431C01DA8B232B60002CDFD0002310
S1133960029A1370DBE7C0464C000020F8B505004E
S11339700E001400002804D08369002B01D100F04C
S1133980B9F9224B9C422DD16C68A369A360A38929
S11339901B0731D52369002B2ED023682269F7B287
S11339A0981A6369F6B2984205DB2100280000F0FA
S11339B033F9002826D1A3680130013BA3602368B2
S11339C05A1C22601F706369984204D0A389DB07E4
S11339D01AD50A2E18D12100280000F01DF900285C
S11339E012D00FE00A4B9C4201D1AC68CDE7094BE1
S11339F09C42CAD1EC68C8E72100280000F00CF80A
S1133A000028CAD0012676423000F8BD4C4D000093
S1133A106C4D00002C4D0000364B70B51D6806003F
S1133A200C00002D05D0AB69002B02D1280000F05A
S1133A3061F9314B9C420FD16C680C23E25E93B266
S1133A4019072DD4D90611D4092301203360373343
S1133A501343A381404270BD284B9C4201D1AC6802
S1133A60EBE7274B9C42E8D1EC68E6E75B0713D50C
S1133A70616B002908D023004433994202D03000FE
S1133A8000F044FA002363632422A3899343A381AF
S1133A9000236360236923600823A2891343A3815D
S1133AA02369002B0BD1A0218022A38989009200D5
S1133AB00B40934203D02100300000F0D9F90123D8
S1133AC0A289134011D00023A36063695B42A36100
S1133AD0002023698342BED10C23E25E1306BAD5CB
S1133AE040231343A3810138B5E7920700D46369E7
S1133AF0A360EDE74C0000204C4D00006C4D00002D
S1133B002C4D0000F7B58A8905000C00130760D41A
S1133B104B68002B04DC0B6C002B01DC0020FEBD89
S1133B20E76A002FFAD000232E682B6080235B0104
S1133B301A4034D0606DA3895B0706D56368C01A48
S1133B40636B002B01D0236CC01A0200216A00238E
S1133B502800E76AB847A189431C06D12B681D2BAE
S1133B6031D82C4ADA40D3072DD50023636023696A
S1133B702360CB0405D5431C02D12B68002B00D154
S1133B806065616B2E600029C8D0230044339942DC
S1133B9002D0280000F0BAF900206063BFE70123D7
S1133BA0216A2800B847431CC5D12B68002BC2D01A
S1133BB01D2B01D0162B01D12E60AFE74023A28923
S1133BC01343A381ABE740230B430120A38140426D
S1133BD0A5E70F69002FA1D00B680F60DB1B0193D1
S1133BE00023920700D14B69A360019B002B00DCEA
S1133BF094E7019B3A00216A2800A66AB04700288E
S1133C0003DC4023A2891343DFE7019B3F181B1AFF
S1133C100193EAE7010040200B6970B505000C0030
S1133C20002B01D1002070BD002804D08369002B33
S1133C3001D100F05FF80B4B9C4209D16C680C2257
S1133C40A35E002BEED021002800FFF75BFFEAE71C
S1133C50054B9C4201D1AC68F1E7044B9C42EED188
S1133C60EC68ECE74C4D00006C4D00002C4D00005E
S1133C7010B5024900F0B2F810BDC046193C00006E
S1133C80002310B5040003604360836081814366B0
S1133C90C281036143618361190008225C30FFF72C
S1133CA00AFD054B24626362044BA362044BE36286
S1133CB0044B236310BDC0465D46000085460000EA
S1133CC0BD460000E946000070B568254A1E55430C
S1133CD00E002900743100F063F9041E08D000219D
S1133CE02A00016046600C30A0606832FFF7E3FCF4
S1133CF0200070BD836913B50400002B28D18364B0
S1133D00C3640365134B144A1B688262019398428F
S1133D1001D101238361200000F020F860602000BD
S1133D2000F01CF8A060200000F018F80022E06009
S1133D3004216068FFF7A4FF01220921A068FFF7AE
S1133D409FFF02221221E068FFF79AFF0123A3617B
S1133D5013BDC046284D0000713C0000F8B51E4B51
S1133D6007001E68B369002B02D13000FFF7C2FFC1
S1133D704836B4687368013B04D53368002B07D018
S1133D803668F6E70C22A55E002D0DD06834F2E704
S1133D9004213800FFF798FF30600028F0D10C238D
S1133DA004003B602000F8BD012320005B42E38156
S1133DB00233A38165662560A56065602561656140
S1133DC0A561082229005C30FFF775FC6563A563D3
S1133DD0A564E564E6E7C046284D0000F7B5040095
S1133DE00700002601914834002C01D13000FEBDAB
S1133DF06368A5680093009B013B009301D5246888
S1133E00F2E7AB89012B08D90E22AB5E013304D053
S1133E1029003800019B984706436835EBE700000A
S1133E2070B50E001D000E23C95E90B01400002969
S1133E3007DA00232B60B3891B0611D48023DB002F
S1133E400FE001AA00F07CFC0028F2DBF022029BC8
S1133E5012021340054A9B185A4253412B60EDE766
S1133E6040230020236010B070BDC04600E0FFFF77
S1133E70F7B502268B8905000C00334206D02300D7
S1133E8047332360236101236361F7BD01AB6A46B5
S1133E90FFF7C6FF00990700280000F081F800280A
S1133EA008D10C22A35E9A05EFD4032293431E4348
S1133EB0A681E4E70F4BAB628023A2892060134301
S1133EC0A381009B20616361019B002B0DD00E2315
S1133ED0E15E280000F046FC002806D00322A389F6
S1133EE093431A0001231343A381A0893843A0817B
S1133EF0CBE7C046713C000010B5034B01001868C5
S1133F0000F04EF810BDC0464C00002070B505000E
S1133F10002910D00C1F2368002B00DAE4182800B5
S1133F2000F063FC1D4A1368002B05D16360146024
S1133F30280000F05BFC70BDA34209D92168601819
S1133F408342F3D118685B6841182160EEE71300DF
S1133F505A68002A01D0A242F9D919685818A04217
S1133F600BD120680918581819608242E0D11068F2
S1133F705268411819605A60DAE7A04202D90C234A
S1133F802B60D5E721686018824203D1106852681B
S1133F904118216062605C60CAE7C046900300205B
S1133FA0032370B5CD1C9D43083506000C2D1ED28D
S1133FB00C25A9421DD8300000F017FC254A1468CE
S1133FC02100002919D1244C2368002B03D130008F
S1133FD000F032FB20602900300000F02DFB431C70
S1133FE02CD10C233000336000F000FC03E0002DE2
S1133FF0DFDA0C233360002070BD0B685B1B1AD41E
S11340000B2B03D90B60CC18256003E08C420ED136
S113401063681360300000F0E9FB200007220B30D6
S1134020231D9043C31AE7D05A42E250E4E74B6899
S113403063600C00EEE70C004968C2E70323C41C6C
S11340409C43A042E0D0211A300000F0F5FA431C52
S1134050DAD1C6E79003002094030020F0B58E68FF
S113406085B007000C00039201939E4239D8902337
S11340708A89DB001A4234D00325096923685B1A54
S11340800293636902985D43EB0F5D19019B6D1008
S113409001331B18AB4200D91D00530532D529004A
S11340A03800FFF77DFF061E09D10C233B60402337
S11340B00120A28940421343A38105B0F0BD029AB6
S11340C02169FFF7EFFAA389144A1A4080231343A6
S11340D0A381029B2661F61826606561019EED1A94
S11340E0A560019BB34200D21E00320003992068F0
S11340F000F069FBA36800209B1BA36023689E1942
S11341002660DAE72A00380000F071FB061EE0D1D1
S113411021693800FFF7FAFEC7E7C0467FFBFFFFBF
S1134120F0B59FB0029005938B890F0016001B0613
S113413011D50B69002B0ED14021FFF731FF3860F8
S11341403861002805D10C23029A013813601FB08E
S1134150F0BD40237B61002306AD6B6120336B7699
S11341601033AB7634002378002B47D1A31B049380
S11341700DD0A31B320039000298FFF76FFF431CD8
S113418000D1B5E06A69049B944663446B6123786B
S1134190002B00D1ACE00122002352426A6002A944
S11341A05432521801342B60EB60AB601370AB6572
S11341B0584E05222178300000F0FAFA621C0028DB
S11341C020D12968CB0604D5532302AE20309B1995
S11341D018700B0704D553232B2002AE9B191870BB
S11341E023782A2B16D000200A21099B2278303A02
S11341F0092A55D9002815D0099313E0252BB5D0E9
S11342000134B0E70123801B8340296814000B4369
S11342102B60CDE7059B181D1B680590002B39DB2F
S11342200993140023782E2B0BD16378621C2A2B5C
S11342303ED1059B02341A1D1B680592002B34DB0A
S11342400793354E21780322300000F0B1FA00289C
S113425006D04023801B83402A68013413432B601B
S1134260217806222D48661C297600F0A1FA002840
S113427046D02B4B002B2FD12968059B0722C9055B
S113428028D59B189343083305936B69039A9B18AD
S11342906B6167E75B42EB6002230B432B60C0E773
S11342A04B4301349B180120A0E701235B42C7E77D
S11342B0002314000A201A006B6021783039092980
S11342C003D9002BBDD00792BBE7424301345218F7
S11342D00123F2E70733D5E705AB00933A00114B0E
S11342E02900029800E000BF0390039B0133CCD166
S11342F0BB890B985B0600D429E70120404226E7DE
S113430005AB00933A00074B2900029800F07AF8B5
S1134310EAE7C0468C4D0000924D0000964D000027
S1134320000000005D400000F7B5150001938A68A5
S11343300B6900900C00934200DA130022002B60FA
S113434043321278002A01D001332B6023689B0684
S113435002D52B6802332B60062723681F4027D021
S1134360230043331B785A1E93412268920630D4AB
S11343702200019943320098089EB047431C25D07F
S1134380062320682A68E16803400025042B03D132
S11343908D1AEB43DB171D40A3682269934201DDAC
S11343A09B1AED180027BD4220D1002010E00137F0
S11343B0E3682A689B1A9F42D2DA22000123193249
S11343C001990098089EB047431CF0D10120404257
S11343D0FEBD3020E1184331087021005A1C4531DC
S11343E00978A218433202331170C1E72200012375
S11343F01A3201990098089EB047431CE6D0013751
S1134400D1E70000F0B58BB006920A00433207935F
S1134410059004920A7E0C00109B6E2A00D18FE056
S113442017D8632A2CD008D8002A00D199E0582A3A
S113443054D026004236327029E0642A01D0692A19
S1134440F7D121681A68080623D5111D196015686B
S113445025E0732A00D188E008D86F2A29D0702A71
S1134460E7D1202209680A43226003E0752A20D09C
S1134470782ADED122007821453211706C4A30E06E
S11344800E001A684236111D196013683370012337
S113449079E04906D9D5111D19600023D55E002D98
S11344A003DA2D23049A6D421370624B0A27039397
S11344B02FE020681968050603D5081D18600D68EB
S11344C005E04006F9D50D68081D1860ADB2594BDA
S11344D0082703936F2A18D00A2716E045310A707B
S11344E0544A03921A682168101D1860156808065A
S11344F022D5CB0702D52023194321601027002D94
S113450003D1202322689A432260230000224333EC
S11345101A706368A360002B5CDB0422216891435A
S11345202160002D58D1049E002B64D02600039BEB
S113453042361B7833705EE04806DAD5ADB2D8E770
S113454009681A68080605D5111D1960136862699F
S11345501A6006E04906F7D5111D19601368A28A8E
S11345601A800023049E236154E01A68111D196007
S1134570166800216268300000F01AF9002801D0A2
S1134580801B6060636823610023049A137041E018
S11345902369320006990598079DA847431C43D018
S11345A0236800259B070FD4099BE06898423DDAF5
S11345B018003BE022000123193206990598079E52
S11345C0B047431C30D00135E368099A9B1A9D42D9
S11345D0F0DBE9E7002DA9D0049E28003900FFF79D
S11345E00DF8039B013E5B5C280033703900FEF735
S11345F07FFF051EF1D1082F09D12368DB0706D5FB
S113460063682269934202DC3023013E3370049BC9
S11346109B1B2361079B09AA00932100069B059815
S1134620FFF782FE431CB3D1012040420BB0F0BD22
S1134630AE4D00009D4D0000002370B5064C0500F2
S113464008002360FEF786FB431C03D12368002B7C
S113465000D02B6070BDC0466C05002070B50C0006
S11346600E25495F00F0EAF8002803DB636D1B1890
S1134670636570BDA389024A1340A381F9E7C0466C
S1134680FFEFFFFFF8B51F008B8905000C00160033
S1134690DB0505D50E23C95E0022022300F074F861
S11346A0A389054A28001340A38132000E23E15E4A
S11346B03B0000F01FF8F8BDFFEFFFFF70B50C00E2
S11346C00E25495F00F060F8A389421C03D1054A16
S11346D01340A38170BD802252011343A3816065FE
S11346E0F8E7C046FFEFFFFF10B50E23C95E00F0E8
S11346F015F810BD70B50500080011000022064C25
S113470022601A00FDF708FA431C03D12368002B2A
S113471000D02B6070BDC0466C050020002370B52E
S1134720064C050008002360FEF726FB431C03D15A
S11347302368002B00D02B6070BDC0466C050020A0
S1134740002370B5064C0500080011002360FEF735
S113475016FB431C03D12368002B00D02B6070BDD3
S11347606C050020002370B5064C0500080023608A
S1134770FEF70AFB431C03D12368002B00D02B60F7
S113478070BDC0466C05002070B50500080011001E
S11347900022064C22601A00FEF7F8FA431C03D1EB
S11347A02368002B00D02B6070BDC0466C05002030
S11347B0C9B28218904201D10020704703788B421D
S11347C0FBD00130F6E710B5884202D98B18984225
S11347D008D300239A4207D0CC5CC4540133F9E7D0
S11347E08B5C8354013AFBD210BD70477047F8B517
S11347F007000D001600002905D11100FFF7D0FBBA
S113480004002000F8BD002A03D1FFF77FFB340029
S1134810F7E700F027F82C008642F2D9310038007F
S1134820FFF7BEFB041EECD029003200FEF73AFF6E
S113483029003800FFF76AFBE3E7000070B50500C4
S1134840080011000022064C22601A00FDF742F90C
S1134850431C03D12368002B00D02B6070BDC046DD
S11348606C0500200B1F1B68181F002B01DA0B5866
S1134870C0187047EA0D00001A0E0000F60D000083
S1134880020E00000E0E0000260E0000320E000084
S1134890DE0D0000202020202020202020202020A9
S11348A02020202020202020202000002020202044
S11348B000000000454E5845520000004241544556
S11348C0520000004D4F4C484F000000454E5841E7
S11348D047554500455356415A494152000000008E
S11348E043454E5452494655470000005345434101
S11348F04E444F004552524F00000000416C746F0B
S113490000000000426169786F0000004D65646931
S11349106F0000004E6F726E616C00005065736131
S1134920646F000052617069646F00004D6F726EB5
S11349306F0000005175656E746500005661706FFC
S1134940720000004E6976656C3A00004D6F646F2A
S11349503A00000053656361723A00002564000068
S11349604F4B0000FF7E3C18183C7EFF0000000007
S11349700000002020202020002050505000000083
S1134980005050F850F850502078A07028F020C003
S1134990C810204098186090A040A89068602040FB
S11349A00000000010204040402010402010101053
S11349B02040005020F8205000002020F820200043
S11349C000000000602040000000F800000000002B
S11349D0000000606000081020408000708898A8E3
S11349E0C888702060202020207070880810204023
S11349F0F8F810201008887010305090F81010F853
S1134A0080F008088870304080F0888870F80810BA
S1134A102040404070888870888870708888780842
S1134A201060006060006060000060600060204012
S1134A30081020402010080000F800F80000804012
S1134A40201020408070880810200020708808689A
S1134A50A8A87070888888F88888F08888F0888882
S1134A60F070888080808870E09088888890E0F872
S1134A708080F08080F8F88080E08080807088807A
S1134A8080988870888888F88888887020202020FA
S1134A902070381010101090608890A0C0A09088EA
S1134AA0808080808080F888D8A8888888888888D2
S1134AB0C8A898888870888888888870F08888F062
S1134AC080808070888888A89068F08888F0A0909A
S1134AD088788080700808F0F82020202020208822
S1134AE088888888887088888888885020888888FA
S1134AF0A8A8D88888885020508888888850202082
S1134B002020F80810204080F83820202020203869
S1134B1000804020100800E02020202020E02050C9
S1134B208800000000000000000000F84020100091
S1134B30000000000070087888788080B0C88888F9
S1134B40F000007080808870080868988888780071
S1134B50007088F88070304840E0404040000078A1
S1134B60887808308080B0C8888888200060202039
S1134B702070100030101090604040485060504841
S1134B80602020202020700000D0A8A88888000081
S1134B90B0C8888888000070888888700000F08811
S1134BA0F08080000068987808080000B0C8808011
S1134BB080000070807008F04040E04040483000C1
S1134BC000888888986800008888885020000088B9
S1134BD088A8A85000008850205088000088887851
S1134BE008700000F8102040F81020204020201009
S1134BF020202020202020402020102020400000C1
S1134C0000080042000C0042001000420014004260
S1134C1000180042001C0042E2260000DE260000CC
S1134C20DE2600004027000040270000F626000092
S1134C30E8260000FC2600002E270000C8270000FC
S1134C40A8270000A827000034280000BA27000085
S1134C50D6270000AC270000E42700002428000029
S1134C601E31000072310000B4310000F031000048
S1134C703032000070320000B0320000FE3000001C
S1134C8053544152542E2E2E2E2E2E2E2E2E2E2E98
S1134C902E2E2E2E2E2E2E2E2E0A00002D2D2D469B
S1134CA0494E414C495A41444F2D2D2D00000000DE
S1134CB0455845435554414E444F3A00504155538D
S1134CC041522020202020202020205041524152B7
S1134CD0000000002D2D2D5041555341444F2D2DE2
S1134CE02D000000434F4E54494E55415220202080
S1134CF02020205041524152000000002D2D2D54FF
S1134D00414D5041204142455254412D2D2D00002A
S1134D102D2D2D2D2D2D2020202020202020205011
S1134D2041524152000000005000002000000000E9
S1134D30000000000000000000000000000000006F
S1134D40000000000000000000000000000000005F
S1134D50000000000000000000000000000000004F
S1134D60000000000000000000000000000000003F
S1134D70000000000000000000000000000000002F
S1134D80000000000000000000000000232D302B74
S1134D902000686C4C006566674546470030313238
S1134DA0333435363738394142434445460030318F
S1134DB032333435363738396162636465660000EE
S1134DC0F8B5C046F8BC08BC9E467047DD0000003C
S1134DD0F8B5C046F8BC08BC9E467047B500000054
S1134DE0401F000008000000044900000C490000B6
S1134DF0FC48000014490000244900001C4900003C
S1134E002C490000344900003C490000040801001A
S1134E106449000004080100684900000000000023
S1134E206C4900000607207D0107F40150000020B2
S1134E30000000004C4D00006C4D00002C4D0000A3
S1134E40000000000000000000000000000000005E
S1134E50000000000000000000000000000000004E
S1134E60000000000000000000000000000000003E
S1134E70000000000000000000000000000000002E
S1134E80000000000000000000000000000000001E
S9032C715F
