S021000054524142414C484F5F46494E414C5F454D4241524341444F532E73726563BD
S1130000A0240020E11F0000DD1F0000DD1F000010
S113001000000000000000000000000000000000DC
S1130020000000000000000000000000DD1F0000D0
S11300300000000000000000DD1F0000DD1F0000C4
S1130040DD1F0000DD1F0000DD1F0000DD1F0000BC
S1130050DD1F0000DD1F0000CD150000DD1F0000C6
S1130060DD1F0000E1190000F1190000011A000071
S1130070111A0000211A0000311A0000DD1F0000CF
S1130080DD1F0000DD1F0000DD1F0000DD1F00007C
S1130090DD1F0000DD1F0000DD1F0000DD1F00006C
S11300A0DD1F0000DD1F0000DD1F0000DD1F00005C
S11300B00000000010B5064C2378002B07D1054B37
S11300C0002B02D0044800E000BF0123237010BDC0
S11300D0B000002000000000042F0000084B10B501
S11300E0002B03D00749084800E000BF0748036815
S11300F0002B00D110BD064B002BFBD09847F9E72D
S113010000000000B4000020042F0000042F0000B1
S113011000000000F0B583B06B46DF1DD8710B4EB4
S11301200B4C0122310020000A4DA8478022D20541
S1130130094B5A61012239002000084B98470022DC
S113014031002000A84703B0F0BDC046C40300201E
S1130150880300203D07000080440041310800006E
S1130160F0B591B0604B9847604C31232370002365
S11301706370A37002A901224A708B700A70312047
S11301805B4B98472378D9090022002904D15A09E6
S1130190D20158498C4662441F2633400125290068
S11301A09940916102AC2570002303930493237456
S11301B06374A574E57423752422A354183A0021AA
S11301C008A84D4B984780235B02E3604B4BA36226
S11301D001235B42E3624A4B23634A4B63634A4B0A
S11301E0A3614A4F22004A4938004A4B98473C6869
S11301F02000494B98470640B540484B1D603A687B
S1130200D369002BFCD1236802221343236001AC81
S1130210012363700022A270237021003E20344D1C
S1130220A84721001B20A84700203D4B984736498A
S11302303C4B9847830018184000802212052D4B30
S11302405A6100284AD0384B586000229A6019003D
S1130250802252020B681342FCD080221205254BE7
S11302609A61314B586000229A6019008022520230
S11302700B681342FCD0802212051E4B9A61A82001
S11302802A4CA0471F20A047D320A0470020A04706
S11302904020A047A120A047C820A047DA20A047BB
S11302A00220A0478120A0478F20A047A420A04778
S11302B0A620A047D520A0478020A0478D20A04796
S11302C01420A047DB20A0474020A047D920A04706
S11302D0F120A047AF20A04711B0F0BD8022120545
S11302E0044B9A61C7E7C0467D030000C4030020A5
S11302F029170000004400418B2200000200300056
S1130300030036000300370040420F00880300203A
S1130310001C004229050000B119000000E100E0C2
S11303206D1D00001921000010E000E0150100001F
S1130330F0B583B06B46DF1DD8710B4E0B4C012218
S1130340310020000A4DA8478022D205094B9A614A
S1130350012239002000084B984700223100200078
S1130360A84703B0F0BDC046C403002088030020A2
S11303703D070000804400413108000070B50020B2
S1130380084B98470500084CFA218900A047074B01
S1130390186007492800A047064B18600522064B41
S11303A01A6070BD6D1D00001921000000000020BE
S11303B040420F000400002010E000E0F0B583B0DC
S11303C00C0016001D0001900F4FB8470F273C404A
S11303D0B02020430D4CA0477006400F1023184353
S11303E0A04737403800A047019B1C00013DEDB2F7
S11303F001359C466544064E2078B0470134AC4232
S1130400FAD103B0F0BDC046110D00001501000083
S113041031030000F8B504000F001500002B03D1D0
S11304200D4B9847A84215D02A00390020000B4BE9
S113043098470F263440B0202043094CA047780643
S1130440400F10231843A04730003840A04728002D
S1130450044B9847F8BDC046450D0000350D00001B
S11304601501000031030000F8B50D480D4B984705
S11304700D4B984740200D4B9847002500260C4F04
S113048034000123320021002800B8470134E4B2CB
S1130490802CF6D10135EDB2042DF1D1F8BDC04662
S11304A0CC000020050D00006101000015010000D2
S11304B015040000F0B5C64600B50400150043B2AB
S11304C0002B01DB1F2902D904BC9046F0BDCF08E4
S11304D0FB00C91A01268E40F3B298460100380089
S11304E00C4B98470200012D09D0002D0BD0022D92
S11304F00CD0002321003800074CA047E4E7434612
S11305000343DAB2F5E7B043C2B2F2E743464340ED
S1130510DAB2EEE7450D00001504000010B5014BFA
S1130520984710BD450D0000F0B58BB005000C00D8
S1130530160029600B681C209B0701D50BB0F0BD89
S11305400B681738DB07F9D408006F4B98476F4ADC
S1130550116A871C0123BB400B43136209A924279A
S1130560F35D0B701430C3B201931800684B9847C5
S11305700198684B9847F05D0021674B98473378A2
S1130580012B3FD03378002B03D123680822134377
S113059023602B000C3329002831002204C38B4232
S11305A0FCD10023EB62AB620024AB862B8636338E
S11305B0EC540133EC540133EC54353B6B722C7125
S11305C02868514B984707005449554B9847BF003A
S11305D0544BFD502F6804AB80221A705C707F3A34
S11305E09A70DC703378002B02D1002204AB9A702D
S11305F0B36A0593F36A0693336B0793736B08939B
S113060000240BE023680C2213432360BAE738006C
S1130610454B98470AE00134042C10D0E1B2A30002
S113062002AA0C201218D0580028F0D0431CF2D093
S113063004A90870000CC0B23C4B9847EBE7337830
S11306406B71337CAB71B37CEB71337D2B72002205
S113065002ABDA803378012B12D03378002B26D109
S1130660B069B28B7B6AF17F0904B47F21431943DB
S113067079622023F35C002B1BD040231A4318E03B
S11306802868214B98471430C0B2294B9847010081
S113069002AB9A1DB069274B984703001720002B23
S11306A000D04BE702AB06331B783B73D5E700223F
S11306B000207368B1680B43F1680B430343317C3A
S11306C00A43717C002903D11B498978890701D524
S11306D080210B43B17C002902D0802189020A4386
S11306E0F17C002902D0802189000A43317D002950
S11306F002D0802189010A4339680B433B607B683F
S11307001A437A60002019E73919000000040040F8
S1130710851E0000F91D000075170000410A000045
S11307207519000080040020C11700007D1F00001F
S1130730A11E00004D1700000020004110B54479AF
S11307401523012C01D0180010BD047A0023002CBD
S1130750F9D1002A58D04B78002B44D003681B7E73
S1130760DB0710D40A78D1090023002904D15309E6
S1130770DB012E498C4663441F21114001228A402B
S11307809A610523DFE70A78D4090023002C04D1F9
S11307905309DB01254CA44663441F241440012261
S11307A0A2405A6103681A7ED20701D58A789A62F8
S11307B0C2790023002AC6D102680421137E0B42A9
S11307C0FCD0117E00234907BDD5538B5B0701D5AF
S11307D0042353838379012B02D0936A0023B2E765
S11307E0936A0023AFE70A78D1090023002904D1D2
S11307F05309DB010D498C4663441F21114001223A
S11308008A405A6100239EE70A78D109002300290F
S113081004D15309DB0105498C4663441F2111406F
S113082001228A409A6100238DE7C04600440041BA
S1130830F0B5DE4657464E464546E0B583B038230C
S1130840C45C333B052C02D01233002A07D11800B4
S113085003B03CBC90469946A246AB46F0BD4379F2
S1130860002B03D103681C7EA4070AD493460024FA
S113087001230225AC460235A846013A92B28A46C3
S113088023E002241C76F1E7357E61460D422ED129
S1130890357E1D4200D1C2E00668357E1D42FCD083
S11308A0671CBFB251460D5D8179012923D0ADB2D9
S11308B03C00377E1F4202D0ED05ED0DB562551E9A
S11308C0ADB2C679002E1DD12A005A4DAA4270D06D
S11308D04579002DE0D10668357E1D42D4D1564DB0
S11308E0377E1F42D0D1013D002DF9D1CCE7022340
S11308F033760233ABE70234A4B25146CF5D3F02F4
S11309003D43D6E751464579002D37D14B4D0191F2
S113091012E00234A4B24946019F795C0902009FA7
S11309200F431BE0013A92B20668377E41460F42FC
S11309301BD1013D002D18D0002AF5D00668377E62
S11309401F42F1D0671CB9B289460199095D009133
S113095081790129DDD069460F884C46317E1942E0
S1130960E0D0FF05FF0DB762DCE70199357E6746ED
S11309703D4218D1357E4646354252D00668357E12
S113098047463D42FBD0357E3D4207D0758B3D4204
S113099000D077838579012D09D0B56A5D46013D84
S11309A0ADB2AB4669E70223337602334FE7B56A4B
S11309B0F4E74379012B0BD0002B34D1C279002A00
S11309C000D144E704245B465D46002B19D13EE781
S11309D0016802220B7E1342FCD0002337E70B7E12
S11309E0234222D00B7E234207D04B8B234200D0DC
S11309F04C838379012B10D08B6A013DADB2002D5D
S1130A0015D001680B7E2342E9D10B4B0A7E2242AA
S1130A10E5D1013B002BF9D1E1E78B6AEDE7122325
S1130A2015E7122313E7002311E712230FE700232E
S1130A300DE7C046FFFF000010270000112700004B
S1130A40F8B58000854BC45826683723E35C36220A
S1130A50A75C1F40337EB57D1D40EB072ED563791F
S1130A60012B25D0002B29D1637A002B26D02168B5
S1130A70E26A1378DBB2501CE062A079012800D14D
S1130A8069E09BB2DB05DB0D8B62A38E013B9BB25D
S1130A90A386A38E9BB2002B10D101333375637AE6
S1130AA0012B0BD1E379002B08D10233B37505E098
S1130AB0637A002B3ED0637A002BD8D16B0711D513
S1130AC0738B5B0751D5637A012B08D01E22382320
S1130AD0E254353B6372023333753B0741D4B36A46
S1130AE004237383AB0715D56379002B0ED1073329
S1130AF03375053B3376013363720023A386238663
S1130B0038330022E254FB0600D57FE06379012BE1
S1130B1000D17FE02B0708D56379002B05D108337A
S1130B2033753376BB0600D58AE06DB2002D00DA4A
S1130B308AE0F8BD4A4B1B88B362638E013B9BB2CB
S1130B406386638E9BB2002B01D1013333756379C5
S1130B50012BB0D086E75078000203430232E262F0
S1130B6090E72000A3699847B9E7637A012B27D05F
S1130B7023689B6ADB05DB0DDAB2A16A0A70A26AFC
S1130B80511CA162A179012933D0238E013B9BB270
S1130B902386238E9BB2002BA4D100223833E25447
S1130BA0343B3375637A022B29D0637A002B00D04F
S1130BB098E7BB0700D495E720002369984791E79D
S1130BC023689B6A638E013B9BB26386638E9BB2F0
S1130BD0002B00D086E70433337500223433E2540B
S1130BE0353B6372FB0700D47CE72000E368984739
S1130BF078E71B0A5370A36A0133A362C5E77B0736
S1130C0000D46FE72000636998476BE72000E3692D
S1130C1098477BE7637A012B00D086E7E379002BC2
S1130C2000D082E702333375013363720022353317
S1130C30E254FB0700D46DE72000E368984769E7B6
S1130C402000236A984770E78023337533767B0648
S1130C5000D46EE7636A200098476AE780040020A6
S1130C60C8030020F0B587B00590184B9847184F7B
S1130C7000250295022601960095164B164A00217E
S1130C803800164CA047029501960095144B154A5E
S1130C9000211548A047029501960095134B144A6C
S1130CA000211448A047059C2000134B98472100BD
S1130CB03800124FB84721000B48B84721000D48AF
S1130CC0B84720000E4B984707B0F0BD69040000F8
S1130CD0EC030020140000203C2B0000B1100000A5
S1130CE008000020342B0000CC030020200000204A
S1130CF0442B00000C040020E1100000EF10000061
S1130D0025110000014B18607047C046CC0200203A
S1130D1030B5C9018918064A12685218013BDBB282
S1130D2001330024055D155501349C42FAD130BDD0
S1130D30CC020020024B1B68C001181842547047B3
S1130D40CC020020024B1B68C0011818405C70479D
S1130D50CC020020F8B5CE46474680B58418802CD6
S1130D6003DD80225242121AD2B2002A37D0CD08B3
S1130D70EC00091B01278F403900FFB2012B19D069
S1130D80002B30D0022B2AD10138C6B29219D4B22A
S1130D90204B9946204B984621002800C8477840AC
S1130DA0C2B2002321002800C047013CE4B2B4428F
S1130DB0F2D114E00138C6B29219D4B2154B994657
S1130DC0154B984621002800C8473843C2B2002377
S1130DD021002800C047013CE4B2B442F2D10CBC6B
S1130DE090469946F8BD0138C6B29219D4B2094B5F
S1130DF09946CF43084B984621002800C8473840FD
S1130E00C2B2002321002800C047013CE4B2B4422E
S1130E10F2D1E4E71D05000015040000F0B583B02D
S1130E200090019208AA1778002B0DD00139CEB298
S1130E309B19DCB2054D3B00019A21000098A8479C
S1130E40013CE4B2B442F6D103B0F0BD550D00004C
S1130E50F0B5DE4657464E464546E0B583B005003C
S1130E600F004378DB089B46D6088378002B09D013
S1130E70012B1FD1002398465B46002B1AD0204B30
S1130E809A4638E05B46002B14D05B469B19DBB2D4
S1130E90994600241B4B98462B78180060436A68D7
S1130EA0944660443A003100C04701340136F6B23A
S1130EB0B145F1D103B03CBC90469946A246AB463D
S1130EC0F0BD424653436A681219D25C3919C9B25B
S1130ED000233000D0470134E4B22B78A342F0D889
S1130EE001239C46E0440136F6B243466A46D37178
S1130EF0D3795B45DED22B780024002BE1D1EFE7D8
S1130F0015040000BD03000010B582B0002909D10A
S1130F10817D00230093083304220020044CA04761
S1130F2002B010BD827D00210248034B9847F7E7C9
S1130F301D0E00002C000020510E0000F0B589B0F9
S1130F4006000D000023009307338022182100209F
S1130F501E4CA04702A81E4B1A8802809B788370FF
S1130F601F246C441E236B4422001A491A4FB847AD
S1130F7020788024201AC40F24186410E4B2002EB0
S1130F8018D0144B1822210002A8144EB047002D8B
S1130F9006D0211FC9B218221148124B984712E0FB
S1130FA0201FC0B200230093083304221821074CE9
S1130FB0A04708E0201FC0B2002300930733142287
S1130FC01821024CA04709B0F0BDC0461D0E000018
S1130FD0502B00003C0000207D150000D9140000B7
S1130FE02C000020510E000070B586B004000029CA
S1130FF00ED1E37D002B1AD0A27D7C212448254B01
S113100098472379012B1BD0002B2FD006B070BD3D
S1131010817D002300930733802200201E4DA847C2
S1131020A27D1E4B052120681D4DA847E1E7A17D47
S113103000230093083304227C20174DA847E0E7DF
S11310400822A35E174A092103A8174DA847A17DCA
S113105000230093073332224A200F4DA847A27D74
S11310600E4B4A2103A8114CA047CFE7257BA17D55
S11310700093073332224A20074EB047A27DA3686B
S1131080AD00E858054B4A21054CA047BEE7C046D1
S113109034000020510E00001D0E00003C00002012
S11310A0291500004C2B00009D220000D9140000DB
S11310B070B504AC0025645F05AD0026AE5F06ADD7
S11310C02D78026001714482868285750022C27582
S11310D00482002901D0048170BD83600473FBE79E
S11310E0002303734372037201334373704710B5D3
S11310F00B7A022B09D8DB0083750C7A002C05D1FE
S1131100086048600B7A01330B7210BD0A68012C29
S113111005D9012392690133DBB29C42FAD1906173
S1131120C261EEE7F0B583B00600002300932033DC
S11311308022002100200D4CA047337A002B13D0CD
S1131140356800240A4F01212800B847AD690134ED
S1131150E4B2337AA342F6D800210120054B984724
S113116030680121044B984703B0F0BD1D0E000008
S1131170E90F00003D0F0000090F000010B5040046
S11311800D2961D01AD9262939D0282900D081E027
S1131190C37DFF20002B22D02379012B20D0002BEC
S11311A006D1237B1221625E934225DCA38A23733A
S11311B000212000384B9847FF2010E0082900D078
S11311C068E00023C3750379012B60D0002B01D1A3
S11311D0038A0373002120002F4B9847FE2010BD83
S11311E00822A35E1221625E9A4202DA013B238145
S11311F0DEE7A38A2381DBE7013B2373D8E7C37DC2
S1131200FF20002BEBD02379012B0ED0002B06D12D
S1131210237B1421625E934213DB638A23730021D0
S113122020001D4B9847FF20D9E70822A35E142114
S1131230625E9A4202DD01332381F0E7638A2381EF
S1131240EDE701332373EAE7C37D002B18D003795C
S1131250012B04D0002B0BD00023C375BAE7002365
S1131260C37500210C4B98470823E05E2082B6E743
S1131270C3750021084B9847207B208200B2AEE75B
S11312800123C3750021044B9847FF20A7E7038A75
S113129003819FE7FF20A2E7E90F000070B5050076
S11312A01600037AFE20002B50D06B7B002B15D048
S11312B02A68002309E00820145E580084539269C8
S11312C00133DBB2287A984206D910790128F2D08A
S11312D05800147B8453F2E700236B732C686A7AFA
S11312E0531EDBB2FD2B05D80023A4690133DBB206
S11312F09A42FAD12B7B002B19D10D2900D170E031
S113130029D9262944D0282928D1FF2A28D02B7A64
S1131310013B9A4230DA00212000384EB0476B7A04
S113132001336B72A0690121B047FF200EE0200059
S1131330334B984783B26B81FE2B08D0FF2B5BD0D5
S11313406B7A5B00985300232B73FF2070BD00233E
S11313502B73FF20FAE7FE200829F7D0FF20F5E7DA
S113136000236B7200210120264B984701212000A5
S1131370224B9847FF20E9E7002120001F4B9847A4
S1131380FF236B72012101201E4B9847FF20DDE7EC
S1131390FF2A0DD0002A18D000212000174EB04794
S11313A06B7A013B6B72E0690121B047FF20CDE706
S11313B000210120134B98472B7A013B6B7268681C
S11313C001210E4B9847FF20C0E7002120000B4B62
S11313D09847FF236B72012101200A4B9847FF2095
S11313E0B4E7FD20FF2AB1D00D212000044B98471B
S11313F001232B73FF20A9E7FF20A7E7090F0000B3
S11314007D1100003D0F0000F0B5DE4657464E4604
S11314104546E0B585B00400884615009B465B7AD6
S11314205A46127A0021009129004046284EB047BE
S11314305B461B78002B06D005B03CBC9046994611
S1131440A246AB46F0BD5B461A7AD308520700D0D9
S113145001335A46527A92465A46977AE71B5246C5
S113146057435F43BFB25B465B689C466744029543
S11314704346039320E06BB2002B0DDB0134E4B24E
S11314806D00EDB2A6420DD04346E31A4A461A4215
S1131490F1D13D780137EEE70122029920000D4B8E
S11314A09847EBE7029B0133DBB202935346013BBF
S11314B0DBB29A46002BBFD05B461E7A002EF1D0D9
S11314C04644F6B2039C002507239946DCE7C04650
S11314D01D0E0000B5040000F0B5C64600B582B08C
S11314E0040090461F000D00019109E07A7A013250
S11314F04244D3B29846019D01342378002B0DD089
S113150020780A28F2D00D28F6D03B004246290064
S1131510044EB0473B7AED18EDB2EDE702B004BCDF
S11315209046F0BD09140000F0B5C64600B582B07F
S1131530040090461F000078002819D00D00019186
S113154009E07A7A01324244D3B29846019D0134CB
S1131550207800280CD00A28F3D00D28F7D03B00BF
S113156042462900044EB0473B7AED18EDB2EEE74F
S113157002B004BC9046F0BD09140000F0B5C646A4
S113158000B5944698460B7A4A7A16000021012544
S1131590002708E0B618F6B2390000E0E5B20130E1
S11315A00478002C0BD004780A2CF3D00D2CF6D040
S11315B0C918C9B22C1C8D42F0D20C1CEEE763464C
S11315C01D7043461E7004BC9046F0BD10B5264BFA
S11315D0984726490B8C0F2213409B002448185827
S11315E003781A403F23CA540F33CA5CD2B203783B
S11315F01B012049C91849881F4CE3185B88CB1A82
S11316004361D3070FD501214E23184AD1543E3BE1
S11316104374037CDB0703D54368002B00D0984751
S1131620164B984710BD93070DD502214E230F4A40
S1131630D15400234374037C9B07F1D58368002BAA
S1131640EED09847ECE75307EAD504214E23074A26
S1131650D154483B4374037C5B07E1D5C368002B3A
S1131660DED09847DCE7C046811600000048004100
S1131670D002002030040020F0020020C116000037
S11316800C4B1B68002B06D1EFF31083002B07D003
S11316900022094B1A70074A13680133136070471C
S11316A072B6BFF35F8F0022044B1A700132024BF3
S11316B01A70F0E740030020440300204800002093
S11316C0084B1A68013A1A601B68002B09D1064BB3
S11316D01B78002B05D00122044B1A70BFF35F8FD7
S11316E062B67047400300204403002048000020F5
S11316F0F0B583B001AC012565700027A770257093
S113170021003E20064EB0478022D205054B9A6147
S11317102770657021000F20B04703B0F0BDC046AC
S1131720291700008044004100B583B001AB80223A
S11317301A700A785A704A789A708A78DA7019009E
S1131740014B984703B000BD7D1F000010B5490848
S113175040230024814202D2180010BD1C00091A43
S1131760631C9BB28842F9D94023FF2CF4D814801F
S11317700023F1E710B582B004000E4B1B78002B58
S113178007D0002905D10B4B5B78834210D01D2074
S11317900CE001A90C701320074B98471320074B4A
S11317A09847044B5C7001221A70002002B010BDEF
S11317B00020FBE748030020851E0000F91D0000FF
S11317C0404B984231D00AD93F4B98424DD03F4BC1
S11317D098425AD03E4B984237D0002070473D4B38
S11317E098420CD03C4B9842F7D1012917D00029DC
S11317F05DD0022915D0032915D00020EEE7012978
S113180007D0002951D0022905D0032905D0002092
S1131810E4E73248E2E73248E0E73248DEE73248BC
S1131820DCE73248DAE73248D8E7012907D0002953
S11318303FD0022905D0032905D00020CEE72D484A
S1131840CCE72D48CAE72D48C8E7012907D000296D
S113185031D0022905D0032905D00020BEE728484D
S1131860BCE72848BAE72848B8E7012907D0002987
S113187023D0022905D0032905D00020AEE7234850
S1131880ACE72348AAE72348A8E7012907D00029A1
S113189015D0022905D0032905D000209EE71E4853
S11318A09CE71E489AE71E4898E71E4896E70320DF
S11318B094E71D4892E71D4890E71D488EE71D48B0
S11318C08CE7C0460010004200180042001C004291
S11318D00014004200080042000C0042030005000E
S11318E003000600030007000300010003001E00BC
S11318F003001F000300090003000A0003000B009B
S113190003001100030012000300130003000D0084
S113191003000E0003000F0003001700030018006B
S11319200300190003000400030008000300100072
S113193003000C000300160030B587B00B4B6A4659
S113194032CB32C232CB32C2009B83420BD0012352
S11319509A0069465258824206D00133062BF7D1C9
S1131960002007B030BD0023D8B2FAE7F02D000004
S113197070470000F0B50A4B1B78002B0CD1094FBF
S1131980094E0A4D0024DE515A1914600433182BF1
S1131990F9D10122024B1A708000024BC150F0BDF4
S11319A04A0300204C030020711900008004002029
S11319B000B583B009236A461370013353700133B1
S11319C093700133D3700133137101335371034B9B
S11319D098476B46185603B000BDC046391900003D
S11319E010B5024B1B680020984710BD4C03002023
S11319F010B5024B5B680120984710BD4C030020D2
S1131A0010B5024B9B680220984710BD4C03002080
S1131A1010B5024BDB680320984710BD4C0300202F
S1131A2010B5024B1B690420984710BD4C030020DD
S1131A3010B5024B5B690520984710BD4C0300208C
S1131A4010B5082803D880001B4B1B589F46002064
S1131A5030E01A4B18692DE0194B1B6A9B059B0F4C
S1131A601848D84026E0154B586923E0134B1B68EF
S1131A7000209B071ED512491022CB681A42FCD0C5
S1131A800E4B1B685B0701D40F4813E000200F4B7B
S1131A9098470A4B9B681B041B0C58430AE05023CD
S1131AA0074AD35C00205B0704D5044BD86801E0E7
S1131AB08020000210BDC046082E000064030020F0
S1131AC00008004000127A00006CDC02A11E000035
S1131AD070B50C490B6A047885784078012210406F
S1131AE080014026B34303432A40D201802083432C
S1131AF013430322224012020348034013430B62A0
S1131B0070BDC04600080040FFFCFFFF082803D852
S1131B108000254B1B589F46172044E0234A136A34
S1131B2002210B43136200203DE0204A9369022105
S1131B300B439361002036E01C4A138A02210B43B5
S1131B40138200202FE0194A938A02210B439382C7
S1131B50002028E016490B68022213430B60134B44
S1131B609A8419000E32CB681A42FCD0104A91684C
S1131B700E4BD96252689A6200229A84190010327C
S1131B80CB681A42FCD00A4B1B689BB2074A938469
S1131B90002008E0054944228B5C022003438B5457
S1131BA0002000E0002070472C2E000000080040B8
S1131BB06403002030B585B0C222D2001A4B9A606B
S1131BC01A4A53681E218B43536001236A461370DB
S1131BD00024174DE0B26946A8470134252CF9D1F9
S1131BE003A800244470012585700470114B9847A4
S1131BF00620114B9847114B9847114B1C725C728D
S1131C009C72DC7201956B465C7006236A46137005
S1131C1014725472694600200A4B984700200A4BFC
S1131C20984705B030BDC046000800400040004160
S1131C30851E0000D11A00000D1B00004D1C000081
S1131C4000040040711C0000291D0000064A93692D
S1131C5008210B4393610122044B1A7019000B787D
S1131C601342FCD17047C04600040040000C004001
S1131C7070B5060004000D782D0205434B78002B47
S1131C8002D08023DB021D434B7A002B02D0802339
S1131C901B031D434868012810D9431E184234D140
S1131CA0022830D90223002201325B009842FBD87B
S1131CB012023243140080235B031D430B7A002B72
S1131CC002D080239B031D43134A53785BB2002B3D
S1131CD0FBDB124B9847124B1E700F4A53785BB2D2
S1131CE0002BFBDB0C4B9C601A0053785BB2002B7F
S1131CF0FBDB094A5368802149020B401D435560B0
S1131D00084B984770BD0022D2E704023443802375
S1131D109B021D43D2E7C046000C00408116000020
S1131D20080C0040C116000010B504000B4A53789B
S1131D305BB2002BFBDB0A4B98470A4B1C70074A2B
S1131D4053785BB2002BFBDB044A516880235B02AF
S1131D500B435360044B984710BDC046000C004031
S1131D6081160000040C0040C116000070B5040088
S1131D701A4A53785BB2002BFBDB194B9847194B7B
S1131D801C70164A53785BB2002BFBDB134E706851
S1131D90C004C00E144B98470500124B1C707668A3
S1131DA0F602F60F114B1C700C4A53785BB2002BF1
S1131DB0FBDB0A4B9C682402240C0D4B9847002E35
S1131DC007D1012C07D9210028000A4B98470500A8
S1131DD001E00134E540280070BDC046000C00401D
S1131DE081160000040C0040411A0000080C004059
S1131DF0C11600001921000010B50400064B9847D5
S1131E00064B1C70064A53888021C9010B4353803A
S1131E10044B984710BDC04681160000020C0040D8
S1131E20000C0040C116000010B504000F4B984789
S1131E300F4B1C700F4A53881B05180F53880E490B
S1131E400B40538053880D490B405380110080226E
S1131E50D2014B881342FCD106494A880302064842
S1131E60024013434B80064B984710BD8116000077
S1131E70020C0040000C0040FFF0FFFFFFBFFFFF1B
S1131E80C116000010B50C7824020443024B984795
S1131E90A4B2024B5C8010BD291E0000000C00405F
S1131EA010B50400064B9847064B1C70064B5C8823
S1131EB02405240F054B98472000054B984710BD77
S1131EC081160000020C0040000C0040C116000006
S1131ED06D1D000030B5D378002B35D11378802BDD
S1131EE029D01B0680246402234354780225AC4382
S1131EF006D19478002C20D18024A402234341608D
S1131F005478013C012C1CD90D042D0CA024E405AB
S1131F102C431C4384620D0CD02424062C431C4304
S1131F208462D478002C22D15B031CD59378012BD6
S1131F301ED0416117E00023D7E7C024E402234305
S1131F40DDE70D4C2340DFE741600C04240CA023A3
S1131F50DB05234383620C0CD0231B0623438362DB
S1131F60D378002B03D15378013B012B02D930BD28
S1131F708161F8E78160FAE7FFFFFBFF10B50A0013
S1131F80C1090023002904D14309DB0105498C461A
S1131F9063441F242040012181401800024B9847CC
S1131FA010BDC04600440041D51E0000704700002B
S1131FB010B5054B9847054B9847054B9847054B7B
S1131FC09847054B984710BDB51B0000F11600005B
S1131FD0AD1F0000AD1F0000AD1F0000FEE70000B4
S1131FE0F8B52A4A2A4B9A4211D01A00294B9A4230
S1131FF00DD2294A03339B1A9B0801339B0000220C
S1132000234822498C58845004329A42FAD1234AF4
S1132010234B9A420AD2D34321495B1803218B43B1
S113202004339B18002102C29342FCD11D4AFF21B4
S11320301D4B8B439360FD3990235B001B4AD150A9
S11320401B4AD3780325AB4302242343D370D378AC
S11320500C27BB4308263343D370164B987B30229E
S11320609043202210439873997BB9433143997369
S11320709A7BAA4322439A730F4A536880210B43E5
S113208053600E4B98470E4B9847FEE7042F000011
S113209000000020B000002004000020B000002058
S11320A09C04002000ED00E00000000000700041EE
S11320B0005000410048004100400041312200002E
S11320C0E92000000300064A1268002A04D0044AEA
S11320D01068C318136070470249014A1160F6E79B
S11320E07C030020A024002010B588B0074B98473B
S11320F004A8074B9847074C01AA282104A8A04725
S113210001AA0D2104A8A047F6E7C046B11F0000AC
S1132110650C00009D120000002243088B4274D31A
S113212003098B425FD3030A8B4244D3030B8B42D4
S113213028D3030C8B420DD3FF22090212BA030CDD
S11321408B4202D31212090265D0030B8B4219D3BE
S113215000E0090AC30B8B4201D3CB03C01A5241DE
S1132160830B8B4201D38B03C01A5241430B8B4226
S113217001D34B03C01A5241030B8B4201D30B030F
S1132180C01A5241C30A8B4201D3CB02C01A524136
S1132190830A8B4201D38B02C01A5241430A8B42F9
S11321A001D34B02C01A5241030A8B4201D30B02E2
S11321B0C01A5241CDD2C3098B4201D3CB01C01AFC
S11321C0524183098B4201D38B01C01A5241430906
S11321D08B4201D34B01C01A524103098B4201D3F4
S11321E00B01C01A5241C3088B4201D3CB00C01A61
S11321F0524183088B4201D38B00C01A52414308D9
S11322008B4201D34B00C01A5241411A00D20146FD
S1132210524110467047FFE701B5002000F006F870
S113222002BDC0460029F7D076E770477047C04624
S113223070B500260C4D0D4C641BA410A64209D1A8
S1132240002600F04FFE0A4D0A4C641BA410A6425F
S113225005D170BDB300EB5898470136EEE7B300E3
S1132260EB5898470136F2E7F02E0000F02E0000FC
S1132270F02E0000F42E0000002310B59A4200D185
S113228010BDCC5CC4540133F8E7030082189342B8
S113229000D1704719700133F9E700000CB430B570
S11322A0164B9DB00C1E1D6808DA8B2301202B6091
S11322B040421DB030BC08BC02B01847822302A9BA
S11322C09B008B810023029008619C4200D0631E16
S11322D08B604B6101235B42CB81209A21AB2800A8
S11322E0019300F017F9431C01DA8B232B60002CB7
S11322F0DFD00023029A1370DBE7C0464C000020B5
S113230070B50500002910D00C1F2368002B00DADB
S1132310E418280000F0B9FB1D4A1368002B05D10E
S113232063601460280000F0B1FB70BDA34209D9BA
S1132330216860188342F3D118685B6841182160F2
S1132340EEE713005A68002A01D0A242F9D91968AD
S11323505818A0420BD120680918581819608242F5
S1132360E0D110685268411819605A60DAE7A04257
S113237002D90C232B60D5E721686018824203D16F
S1132380106852684118216062605C60CAE7C04608
S113239080030020032370B5CD1C9D43083506003F
S11323A00C2D1ED20C25A9421DD8300000F06DFB67
S11323B0254A14682100002919D1244C2368002BD4
S11323C003D1300000F032FB20602900300000F01F
S11323D02DFB431C2CD10C233000336000F056FB42
S11323E003E0002DDFDA0C233360002070BD0B689E
S11323F05B1B1AD40B2B03D90B60CC18256003E0AC
S11324008C420ED163681360300000F03FFB200063
S113241007220B30231D9043C31AE7D05A42E250DF
S1132420E4E74B6863600C00EEE70C004968C2E720
S11324300323C41C9C43A042E0D0211A300000F0C6
S1132440F5FA431CDAD1C6E7800300208403002098
S1132450F0B58E6885B007000C00039201939E428C
S113246039D890238A89DB001A4234D003250969BC
S113247023685B1A0293636902985D43EB0F5D194D
S1132480019B6D1001331B18AB4200D91D0053058D
S113249032D529003800FFF77DFF061E09D10C2331
S11324A03B6040230120A28940421343A38105B02D
S11324B0F0BD029A2169FFF7DFFEA389144A1A408E
S11324C080231343A381029B2661F618266065616D
S11324D0019EED1AA560019BB34200D21E0032009A
S11324E00399206800F0BFFAA36800209B1BA36037
S11324F023689E192660DAE72A00380000F0C7FA3C
S1132500061EE0D121693800FFF7FAFEC7E7C0468E
S11325107FFBFFFFF0B59FB0029005938B890F00FE
S113252016001B0611D50B69002B0ED14021FFF7B5
S113253031FF38603861002805D10C23029A013834
S113254013601FB0F0BD40237B61002306AD6B61B7
S113255020336B761033AB7634002378002B47D1CD
S1132560A31B04930DD0A31B320039000298FFF77C
S11325706FFF431C00D1B5E06A69049B9446634431
S11325806B612378002B00D1ACE00122002352427E
S11325906A6002A95432521801342B60EB60AB60BC
S11325A01370AB65584E05222178300000F050FAC4
S11325B0621C002820D12968CB0604D5532302AE1F
S11325C020309B1918700B0704D553232B2002AE1F
S11325D09B19187023782A2B16D000200A21099BF6
S11325E02278303A092A55D9002815D0099313E0E6
S11325F0252BB5D00134B0E70123801B8340296823
S113260014000B432B60CDE7059B181D1B68059038
S1132610002B39DB0993140023782E2B0BD163781C
S1132620621C2A2B3ED1059B02341A1D1B6805929D
S1132630002B34DB0793354E21780322300000F061
S113264007FA002806D04023801B83402A680134FF
S113265013432B60217806222D48661C297600F04E
S1132660F7F9002846D02B4B002B2FD12968059B66
S11326700722C90528D59B189343083305936B6932
S1132680039A9B186B6167E75B42EB6002230B4381
S11326902B60C0E74B4301349B180120A0E70123C2
S11326A05B42C7E7002314000A201A006B602178FC
S11326B03039092903D9002BBDD00792BBE7424327
S11326C0013452180123F2E70733D5E705AB009331
S11326D03A00114B2900029800E000BF0390039BCD
S11326E00133CCD1BB890B985B0600D429E70120C8
S11326F0404226E705AB00933A00074B29000298B5
S113270000F07AF8EAE7C046B02E0000B62E0000CA
S1132710BA2E00000000000051240000F7B5150097
S113272001938A680B6900900C00934200DA13004D
S113273022002B6043321278002A01D001332B602F
S113274023689B0602D52B6802332B600627236877
S11327501F4027D0230043331B785A1E934122681D
S1132760920630D42200019943320098089EB04763
S1132770431C25D0062320682A68E168034000250D
S1132780042B03D18D1AEB43DB171D40A368226988
S1132790934201DD9B1AED180027BD4220D1002091
S11327A010E00137E3682A689B1A9F42D2DA2200BC
S11327B00123193201990098089EB047431CF0D1B7
S11327C001204042FEBD3020E11843310870210051
S11327D05A1C45310978A218433202331170C1E7FB
S11327E0220001231A3201990098089EB047431C25
S11327F0E6D00137D1E70000F0B58BB006920A00AD
S113280043320793059004920A7E0C00109B6E2AB3
S113281000D18FE017D8632A2CD008D8002A00D121
S113282099E0582A54D026004236327029E0642AAE
S113283001D0692AF7D121681A68080623D5111D29
S11328401960156825E0732A00D188E008D86F2A3A
S113285029D0702AE7D1202209680A43226003E0C4
S1132860752A20D0782ADED12200782145321170D1
S11328706C4A30E00E001A684236111D1960136864
S11328803370012379E04906D9D5111D196000235D
S1132890D55E002D03DA2D23049A6D421370624B2A
S11328A00A2703932FE020681968050603D5081D3D
S11328B018600D6805E04006F9D50D68081D18601C
S11328C0ADB2594B082703936F2A18D00A2716E094
S11328D045310A70544A03921A682168101D186021
S11328E01568080622D5CB0702D520231943216099
S11328F01027002D03D1202322689A43226023004D
S1132900002243331A706368A360002B5CDB04224B
S1132910216891432160002D58D1049E002B64D07E
S11329202600039B42361B7833705EE04806DAD5F6
S1132930ADB2D8E709681A68080605D5111D1960F3
S1132940136862691A6006E04906F7D5111D19601B
S11329501368A28A1A800023049E236154E01A6833
S1132960111D1960166800216268300000F070F8CB
S1132970002801D0801B6060636823610023049AEF
S1132980137041E02369320006990598079DA84712
S1132990431C43D0236800259B070FD4099BE068A0
S11329A098423DDA18003BE02200012319320699CF
S11329B00598079EB047431C30D00135E368099A57
S11329C09B1A9D42F0DBE9E7002DA9D0049E280064
S11329D03900FFF727FC039B013E5B5C2800337042
S11329E03900FFF799FB051EF1D1082F09D123689F
S11329F0DB0706D563682269934202DC3023013E7B
S1132A003370049B9B1B2361079B09AA009321003D
S1132A10069B0598FFF782FE431CB3D10120404278
S1132A200BB0F0BDD22E0000C12E0000002370B503
S1132A30064C050008002360FFF744FB431C03D148
S1132A402368002B00D02B6070BDC0469804002082
S1132A50C9B28218904201D10020704703788B429A
S1132A60FBD00130F6E710B5884202D98B189842A2
S1132A7008D300239A4207D0CC5CC4540133F9E74D
S1132A808B5C8354013AFBD210BD70477047F8B594
S1132A9007000D001600002905D11100FFF77AFC8C
S1132AA004002000F8BD002A03D1FFF729FC3400FC
S1132AB0F7E700F012F82C008642F2D93100380012
S1132AC0FFF768FC041EECD029003200FFF7D4FBAA
S1132AD029003800FFF714FCE3E70B1F1B68181FDD
S1132AE0002B01DA0B58C01870470000416C746F5A
S1132AF000000000426169786F0000004D65646960
S1132B006F0000004E6F726E616C0000506573615F
S1132B10646F000052E17069646F00004D6F726E63
S1132B206F0000005175656E746500005661706F2A
S1132B3072000000C16775613A0000004D6F646F58
S1132B403A00000053656361723A00002564000096
S1132B504F4B0000FF7E3C18183C7EFF0000000035
S1132B6000000020202020200020505050000000B1
S1132B70005050F850F850502078A07028F020C031
S1132B80C810204098186090A040A8906860204029
S1132B900000000010204040402010402010101081
S1132BA02040005020F8205000002020F820200071
S1132BB000000000602040000000F8000000000059
S1132BC0000000606000081020408000708898A811
S1132BD0C888702060202020207070880810204051
S1132BE0F8F810201008887010305090F81010F881
S1132BF080F008088870304080F0888870F80810E9
S1132C002040404070888870888870708888780870
S1132C101060006060006060000060600060204040
S1132C20081020402010080000F800F80000804040
S1132C3020102040807088081020002070880868C8
S1132C40A8A87070888888F88888F08888F08888B0
S1132C50F070888080808870E09088888890E0F8A0
S1132C608080F08080F8F88080E0808080708880A8
S1132C7080988870888888F8888888702020202028
S1132C802070381010101090608890A0C0A0908818
S1132C90808080808080F888D8A888888888888800
S1132CA0C8A898888870888888888870F08888F090
S1132CB080808070888888A89068F08888F0A090C8
S1132CC088788080700808F0F82020202020208850
S1132CD08888888888708888888888502088888828
S1132CE0A8A8D888888850205088888888502020B0
S1132CF02020F80810204080F83820202020203898
S1132D0000804020100800E02020202020E02050F7
S1132D108800000000000000000000F840201000BF
S1132D20000000000070087888788080B0C8888827
S1132D30F00000708080887008086898888878009F
S1132D40007088F88070304840E0404040000078CF
S1132D50887808308080B0C8888888200060202067
S1132D60207010003010109060404048506050486F
S1132D70602020202020700000D0A8A888880000AF
S1132D80B0C8888888000070888888700000F0883F
S1132D90F08080000068987808080000B0C880803F
S1132DA080000070807008F04040E04040483000EF
S1132DB000888888986800008888885020000088E7
S1132DC088A8A8500000885020508800008888787F
S1132DD008700000F8102040F81020204020201037
S1132DE020202020202020402020102020400000EF
S1132DF000080042000C004200100042001400428F
S1132E0000180042001C0042521A00004E1A000032
S1132E104E1A0000B01A0000B01A0000661A000032
S1132E20581A00006C1A00009E1A0000381B00009B
S1132E30181B0000181B0000A41B00002A1B000024
S1132E40461B00001C1B0000541B0000941B0000C8
S1132E50000000000000000000000000000000006E
S1132E60000000000000000000000000000000005E
S1132E70000000000000000000000000000000004E
S1132E80000000000000000000000000000000003E
S1132E90000000000000000000000000000000002E
S1132EA0000000000000000000000000000000001E
S1132EB0232D302B2000686C4C006566674546471F
S1132EC000303132333435363738394142434445A2
S1132ED04600303132333435363738396162636411
S1132EE065660000F8B5C046F8BC08BC9E4670474D
S1132EF0DD000000F8B5C046F8BC08BC9E4670472B
S1072F00B500000014
S1132F04401F000008000000F42A0000FC2A00000E
S1132F14EC2A0000042B0000142B00000C2B0000EE
S1132F241C2B0000242B00002C2B0000040801009F
S1132F34542B000004080100582B0000000000007A
S1132F445C2B00000607207D0100000050000020D7
S1132F5400000000702E0000902E0000502E00008F
S1132F640000000000000000000000000000000059
S1132F740000000000000000000000000000000049
S1132F840000000000000000000000000000000039
S1132F940000000000000000000000000000000029
S1132FA40000000000000000000000000000000019
S9031FE1FC
