S021000054524142414C484F5F46494E414C5F454D4241524341444F532E73726563BD
S113000020210020A10700009D0700009D0700009B
S113001000000000000000000000000000000000DC
S11300200000000000000000000000009D07000028
S113003000000000000000009D0700009D07000074
S11300409D0700009D0700009D0700009D0700001C
S11300509D0700009D070000A10100009D0700000E
S11300609D0700002103000031030000410300004C
S11300705103000061030000710300009D070000AC
S11300809D0700009D0700009D0700009D070000DC
S11300909D0700009D0700009D0700009D070000CC
S11300A09D0700009D0700009D0700009D070000BC
S11300B00000000010B5064C2378002B07D1054B37
S11300C0002B02D0044800E000BF0123237010BDC0
S11300D0100000200000000060090000084B10B56B
S11300E0002B03D00749084800E000BF0748036815
S11300F0002B00D110BD064B002BFBD09847F9E72D
S113010000000000140000206009000060090000E5
S11301100000000070B5074C0023237001226270B8
S1130120A37021001C20044DA84721000220A847E9
S113013070BDC046C8000020FD02000070B5074C29
S1130140012363700022A270237021000C20044D4F
S1130150A84721000F20A84770BDC046C800002052
S1130160FD02000010B5024B9847024B984710BDA2
S1130170150100003D010000C2090023002A04D13A
S11301804309DB01054A944663441B6A1F2202406B
S113019001209040184043425841704700440041B8
S11301A010B5264B984726490B8C0F2213409B0011
S11301B02448185803781A403F23CA540F33CA5CA2
S11301C0D2B203781B012049C91849881F4CE3188F
S11301D05B88CB1A4361D3070FD501214E23184AFC
S11301E0D1543E3B4374037CDB0703D54368002BA7
S11301F000D09847164B984710BD93070DD50221A0
S11302004E230F4AD15400234374037C9B07F1D53A
S11302108368002BEED09847ECE75307EAD5042116
S11302204E23074AD154483B4374037C5B07E1D512
S1130230C368002BDED09847DCE7C04655020000B7
S1130240004800412C000020D00000204000002085
S1130250950200000C4B1B68002B06D1EFF31083B2
S1130260002B07D00022094B1A70074A1368013388
S11302701360704772B6BFF35F8F0022044B1A708D
S11302800132024B1A70F0E7900000209400002025
S113029000000020084B1A68013A1A601B68002B02
S11302A009D1064B1B78002B05D00122044B1A7090
S11302B0BFF35F8F62B67047900000209400002067
S11302C000000020F0B583B001AC01256570002763
S11302D0A770257021003E20064EB0478022D2052B
S11302E0054B9A612770657021000F20B04703B059
S11302F0F0BDC046FD0200008044004100B583B05B
S113030001AB80221A700A785A704A789A708A78F7
S1130310DA701900014B984703B000BD3D07000097
S113032010B5024B1B680020984710BD98000020B0
S113033010B5024B5B680120984710BD980000205F
S113034010B5024B9B680220984710BD980000200E
S113035010B5024BDB680320984710BD98000020BD
S113036010B5024B1B690420984710BD980000206B
S113037010B5024B5B690520984710BD980000201A
S113038070B50C490B6A04788578407801221040D6
S113039080014026B34303432A40D2018020834393
S11303A013430322224012020348034013430B6207
S11303B070BDC04600080040FFFCFFFF082803D8BA
S11303C08000254B1B589F46172044E0234A136A9C
S11303D002210B43136200203DE0204A936902216D
S11303E00B439361002036E01C4A138A02210B431D
S11303F0138200202FE0194A938A02210B4393822F
S1130400002028E016490B68022213430B60134BAB
S11304109A8419000E32CB681A42FCD0104A9168B3
S11304200E4BD96252689A6200229A8419001032E3
S1130430CB681A42FCD00A4B1B689BB2074A9384D0
S1130440002008E0054944228B5C022003438B54BE
S1130450002000E0002070471C0900000008004054
S1130460B000002030B585B0C222D2001A4B9A6089
S11304701A4A53681E218B43536001236A46137042
S11304800024174DE0B26946A8470134252CF9D160
S113049003A800244470012585700470114B98470B
S11304A00620114B9847114B9847114B1C725C72F4
S11304B09C72DC7201956B465C7006236A4613706D
S11304C014725472694600200A4B984700200A4B64
S11304D0984705B030BDC0460008004000400041C8
S11304E07906000081030000BD030000FD04000044
S11304F00004004021050000D9050000064A936964
S113050008210B4393610122044B1A7019000B78E4
S11305101342FCD17047C04600040040000C004068
S113052070B5060004000D782D0205434B78002BAE
S113053002D08023DB021D434B7A002B02D08023A0
S11305401B031D434868012810D9431E184234D1A7
S1130550022830D90223002201325B009842FBD8E2
S113056012023243140080235B031D430B7A002BD9
S113057002D080239B031D43134A53785BB2002BA4
S1130580FBDB124B9847124B1E700F4A53785BB239
S1130590002BFBDB0C4B9C601A0053785BB2002BE6
S11305A0FBDB094A5368802149020B401D43556017
S11305B0084B984770BD0022D2E7040234438023DD
S11305C09B021D43D2E7C046000C004055020000C8
S11305D0080C00409502000010B504000B4A537843
S11305E05BB2002BFBDB0A4B98470A4B1C70074A93
S11305F053785BB2002BFBDB044A516880235B0217
S11306000B435360044B984710BDC046000C004098
S113061055020000040C00409502000010B50400CF
S11306200F4B98470F4B1C700F4A53881B05180F2C
S113063053880E490B40538053880D490B40538017
S113064011008022D2014B881342FCD106494A880A
S113065003020648024013434B80064B984710BDE3
S113066055020000020C0040000C0040FFF0FFFFA8
S1130670FFBFFFFF9502000010B50C78240204436D
S1130680024B9847A4B2024B5C8010BD1D060000CB
S1130690000C004030B5D378002B35D11378802B73
S11306A029D01B0680246402234354780225AC43DA
S11306B006D19478002C20D18024A40223434160E5
S11306C05478013C012C1CD90D042D0CA024E40504
S11306D02C431C4384620D0CD02424062C431C435D
S11306E08462D478002C22D15B031CD59378012B2F
S11306F01ED0416117E00023D7E7C024E40223435E
S1130700DDE70D4C2340DFE741600C04240CA023FB
S1130710DB05234383620C0CD0231B062343836233
S1130720D378002B03D15378013B012B02D930BD80
S11307308161F8E78160FAE7FFFFFBFF10B50A006B
S1130740C1090023002904D14309DB0105498C4672
S113075063441F242040012181401800024B984724
S113076010BDC046004400419506000070470000DB
S113077010B5054B9847054B9847054B9847054BD3
S11307809847054B984710BD65040000C50200005A
S11307906D0700006D0700006D070000FEE7000014
S11307A0F8B52A4A2A4B9A4211D01A00294B9A4288
S11307B00DD2294A03339B1A9B0801339B00002264
S11307C0234822498C58845004329A42FAD1234A4D
S11307D0234B9A420AD2D34321495B1803218B430A
S11307E004339B18002102C29342FCD11D4AFF210D
S11307F01D4B8B439360FD3990235B001B4AD15002
S11308001B4AD3780325AB4302242343D370D37804
S11308100C27BB4308263343D370164B987B3022F6
S11308209043202210439873997BB94331439973C1
S11308309A7BAA4322439A730F4A536880210B433D
S113084053600E4B98470E4B9847FEE76009000033
S113085000000020040000200400002010000020FC
S11308602001002000ED00E00000000000700041C5
S1130870005000410048004100400041D5080000FC
S11308808508000070B50F4B98470F4B98470F4EE3
S11308900F4C350006E080235B01A36109E080234F
S11308A01B02A3611C20B0470028F4D080235B0105
S11308B063610220A8470028F1D080231B026361F2
S11308C0F0E7C046710700006501000079010000EF
S11308D00044004170B500260C4D0D4C641BA4105F
S11308E0A64209D1002600F02BF80A4D0A4C641BDD
S11308F0A410A64205D170BDB300EB589847013649
S1130900EEE7B300EB5898470136F2E74C090000D4
S11309104C0900004C09000050090000E8030000E5
S1130920C8030000C803000054040000DA030000F8
S1130930F6030000CC03000004040000440400009B
S1130940F8B5C046F8BC08BC9E467047DD00000000
S1130950F8B5C046F8BC08BC9E467047B500000018
S1070960010000008E
S90307A154
